:020000040800F2
:1000000008080020ED010008951A000837140008C0
:10001000911A000801130008BB2600080000000028
:100020000000000000000000000000002123000884
:1000300005130008000000001D1B000835240008FF
:10004000070200080702000807020008070200086C
:10005000070200080702000807020008070200085C
:10006000070200080702000807020008070200084C
:10007000070200080702000807020008070200083C
:10008000070200080702000807020008070200082C
:10009000070200080702000807020008070200081C
:1000A000070200080702000807020008070200080C
:1000B00007020008070200080702000807020008FC
:1000C00007020008070200080702000807020008EC
:1000D0000702000899240008070200080702000828
:1000E00007020008070200080702000807020008CC
:1000F00007020008070200080702000807020008BC
:1001000007020008070200080702000807020008AB
:10011000070200080702000807020008070200089B
:10012000070200080702000807020008070200088B
:1001300000F002F800F04AF80AA090E8000C8244AF
:100140008344AAF10107DA4501D100F03FF8AFF28C
:10015000090EBAE80F0013F0010F18BFFB1A43F0A5
:1001600001031847CC710000EC710000103A24BF65
:1001700078C878C1FAD8520724BF30C830C144BF0C
:1001800004680C607047000000230024002500264E
:10019000103A28BF78C1FBD8520728BF30C148BFEA
:1001A0000B607047662903F0D583782900F08080C2
:1001B000002070471FB500F025FB0400002000213F
:1001C00002F0B0FFE0601FBD10B510BD00F036FCBE
:1001D0001146FFF7EFFF02F0F3FB00F054FC03B40D
:1001E000FFF7F2FF03BC02F07EFA000009488047E7
:1001F00009480047FEE7FEE7FEE7FEE7FEE7FEE709
:10020000FEE7FEE7FEE7FEE704480549054A064B20
:10021000704700003924000831010008080200205E
:10022000080800200804002008040020704700008F
:100230000FB4044910B503AA029800F0D1FA10BC1B
:100240005DF814FB480000202DE9F0410E460446FD
:10025000002020622046E168884730B3252805D079
:10026000D4E901219047206A401CF2E7E16820466A
:1002700000278847050018D0A5F14100192802D8A9
:1002800020354FF400673246294620462760FFF7A5
:1002900089FF40B1012804D0F61D26F00706083674
:1002A000D8E7361DD6E72846DAE7206ABDE8F081B0
:1002B00070B504460D4621461068AFF300802188D2
:1002C000090502D50F4A7A4402E00E4A7A440E32FA
:1002D000002104F1240305E000F00F060009965DFB
:1002E0005E54491C0028F7D120780023000704D56C
:1002F000702D02D009B1022311322046BDE87040B2
:1003000000F006B8AA6F000070477047704770474A
:100310002DE9F0470D4699469246044600F124081F
:100320000168880604D5E06921F01001216000E031
:100330000120A84201DD471B00E00027A1697A19CE
:1003400002EB0900081AA0612078C00602D42046FA
:10035000AFF30080002608E0D4E901211AF8060076
:100360009047206A401C761C20624E45F4DB2078C2
:10037000C0060AD52046AFF3008006E0D4E901218B
:1003800030209047206A401C2062381EA7F10107E8
:10039000F4DC07E0D4E9012118F805009047206A51
:1003A000401C2062281EA5F10105F3DC2046AFF3B6
:1003B00000802078000602D50220BDE8F0870120E9
:1003C000FBE770472DE9FF4F0C461E464FF0FF3705
:1003D0008BB0D2E90001DDF860800A908A46C1F353
:1003E0000A5505B93D46002108464FF00000BAF114
:1003F000000F00F4400005DA00EB80004FF44001EC
:1004000001EA50004FEA9059B9F1010F00DDB946F9
:100410000A9850EA4A000ED044F61050A5F2FF3573
:1004200045432F14B8F1000F1ED07542291E1EDD62
:10043000C9F100021CE0B8F1010F4FF0000001D03B
:10044000302103E0F24305E02154401CB042FBDBC5
:1004500030460022002121540B99C1F80880C1E9DF
:1004600000200FB0BDE8F08FBD1B6D1CDEE74A46D3
:1004700000DA694206A800F067FA06AB93E80700C5
:1004800003AB83E8070050460A9900F045FB8DE86E
:100490000700A0F500501F3800900398002D0ADDDA
:1004A00042F21F014A460844002303A9039068460C
:1004B00000F0AEFD09E0A0F500504A461F380023C9
:1004C00003A90390684600F0B8FD8DE8070000041A
:1004D000000C03D04FF0FF30410800E01046B8F1A7
:1004E000000F03D00022009215461EE0751E05D4B1
:1004F00000F08CF9303262556D1EF9D5B3460122F9
:10050000084302D000227F1C04E02078302801D16B
:1005100000227F1E002A099784D01DE0112D07DAE2
:1005200000F074F9303262556D1C50EA0102F5D1C9
:10053000084302D00098C8B10EE00021681E05E013
:10054000235C625C63542254401E491C8142F7DBE9
:10055000AB46A81B401E0990002004F80B000B9826
:10056000099AC0F80880C0E9002B7AE711264FF0FD
:10057000000857E72DE9F04F88460446D21D22F0C7
:10058000070191B0D1E90001CDE90A0102F097F825
:1005900002460B98C00F01D02D2007E0206881078C
:1005A00001D52B2002E0202101EAC000032A099096
:1005B00001D0072A05DB03464146204600F084F9B6
:1005C0000BE12078800601D5E06900E00620B8F153
:1005D000650F814606D0B8F1660F18D0B8F1670FE5
:1005E00070D131E00020B9F1110F009001DB11232F
:1005F00001E009F101030AAA01A90CA8FFF7E2FE34
:10060000DDE90C70002609F10105834647E0012071
:100610004B4600904FF000470AAA01A90CA8FFF72B
:10062000D1FEDDE90DB00C995D46002610B909F147
:1006300001000D18B9EB050003D4C0F1FF3609F134
:100640000105A5EB09002BE0B9F1010F01DA4FF02C
:1006500001090020B9F1110F0090484601DD112376
:1006600000E003460AAA01A90CA8FFF7ABFEDDE9EA
:100670000C704D4600268346207800070AD4AB450F
:1006800000DA5D4601A8012D04DD411911F8011CB5
:10069000302907D04F4502DA17F1040F04DA0120A0
:1006A00082460FE06D1EEEE7002F02DCED1B3E449C
:1006B00003E0781CA84200DD7D1CB81B00F1010A94
:1006C0004FF000472078000703D4AA4501DB4FF024
:1006D000FF3A0021B7F1004F0DF143088DF84310A8
:1006E00024D002202B23002F01DA7F422D230A2160
:1006F000021EA0F1010000DC5FB197FBF1FC97FB4B
:10070000F1F201FB1C7C17460CF1300C08F801CD0E
:10071000EEE7A8F1010003702188090501D5452104
:1007200000E06521A0F1010800F8011C09980FA95B
:10073000A1EB0807FF1D00B10120411901EBEA7090
:10074000A1693844081A401EA0612078C00602D46E
:100750002046AFF30080099828B1D4E901219047E1
:10076000206A401C20622078C00622D52046AFF3C4
:1007700000801EE0002E04DBB34502DD01A8805D91
:1007800000E03020D4E901219047206A401C20621B
:10079000761CAAF101005FEA000A0AD100F032F8E3
:1007A000C0680168405CD4E901219047206A401C80
:1007B0002062281EA5F10105DCDC07E0D4E9012157
:1007C00018F8010B9047206A401C2062381EA7F1E0
:1007D0000107F3DC2046AFF30080032011B041E6AF
:1007E000074B70B50D467B4400F05BF80446284685
:1007F00000F01CF910B14FF0FF3070BD204670BD05
:10080000BB21000000487047C401002030B5B0F1A2
:100810000A024FEA900E71F100034EEA817EB0EBBE
:100820000E0061EB91014FEA101E4EEA017E10EBC3
:100830000E0041EB11114FEA102E4EEA016E10EB43
:100840000E0041EB11214FEA104E4EEA014E10EB23
:100850000E0041EB1141401841F100014FEAD00078
:1008600040EA41704FEAD10110EB80054FEA810464
:1008700044EA907444EB01046D1944EB0404521BE8
:10088000A3414FF0000348BF0A3200D530BD401CE1
:1008900041F1000130BD000001694A1C0261087885
:1008A000704700B58FB0CDE90131002105910549B0
:1008B0007944CDE9031011466846FFF7C5FC0FB037
:1008C00000BD0000E5FFFFFF2DE9F0411F46044693
:1008D00003260168072A01F4006004DB08B116A5AD
:1008E00005E016A503E008B115A500E015A521F067
:1008F00010002060A069C01EA0610FB1401EA06161
:100900002046AFF300804FB1D4E90121384690472B
:10091000206A401C2062C01C206206E0206AFAE7C0
:10092000D4E9012115F8010B9047761EF8D2204634
:10093000AFF30080BDE8F0814E414E006E616E0065
:10094000494E4600696E66002DE9F047814616461D
:100950008AB0354878440DC88DE80D003248784497
:10096000801C03AC0DC884E80D0041F69B300844A0
:10097000372190FBF1F290FBF1F5A5F1800501FB29
:1009800012041B3C02D56442012000E00020DFF885
:1009900098A080460027FA44AAF1BE0A0EE0E007BC
:1009A0000AD03246684607EB470101230AEB810172
:1009B00000F043FB8DE8070064107F1C002CEED193
:1009C000194F7F44AE3F19E0E80715D007EB04103C
:1009D0000DF1180A90E80E008AE80E00C068F04297
:1009E00001D1981908903246012306A903A800F006
:1009F00024FB03AB83E807006D10641C002DE3D1DA
:100A00004FF0010332466946B8F1000F03A802D047
:100A100000F0FEFA01E000F010FBC9E90001C9F89E
:100A200008200AB0BDE8F087C0690000007B00F034
:100A30008000704700487047A40100207546FFF70A
:100A4000F9FFAE4605006946534620F0070085468B
:100A500018B020B5FFF7D8FBBDE820404FF00006E6
:100A60004FF000074FF000084FF0000B21F0070196
:100A7000AC46ACE8C009ACE8C009ACE8C009ACE8D9
:100A8000C0098D46704710B50446AFF3008020467C
:100A9000BDE81040FFF7A3BB4FF0013C50F8042B1A
:100AA00051F8043B9A4221D1A2EB0C03934313EA81
:100AB000CC1317D150F8042B51F8043B9A4215D1AE
:100AC000A2EB0C03934313EACC130BD150F8042B85
:100AD00051F8043B9A4209D1A2EB0C03934313EA69
:100AE000CC13DBD04FF00000704700BFD01A01BA22
:100AF000B1FA81F101F0180122FA01F0CB40C1F105
:100B00002001DBB2C0B2C01A2CFA01F3D11A914312
:100B100011EAC311E6D170475FEA400C08BF91F0BB
:100B2000000F4FEA8C234FEAC12243EA51514FEAAA
:100B30001C5018BF00F5F0404FEA300018BF41F0DC
:100B400000415FEA6C5C00F02980BCF1FF3F08BF08
:100B500040F080407047130C06BF12044FF0100C99
:100B60004FF0000C130E04BF12020CF1080C130F0F
:100B700004BF12010CF1040C930F04BF92000CF19E
:100B8000020CD30F04BF52000CF1010C11464FF0C0
:100B90000002A0F11F00A0EB0C00704711F0004F05
:100BA00008BF704731F000413FF4D5AF0B0C06BFD2
:100BB00009044FF0100C4FF0000C0B0E04BF09029B
:100BC0000CF1080C0B0F04BF09010CF1040C8B0F86
:100BD00004BF89000CF1020CCB0F04BF49000CF1DB
:100BE000010CCCF12003A0EB0C0022FA03F302FA73
:100BF0000CF241EA030100F10100704720F07F4C44
:100C000080EA030023F07F47ACEB070303F57C5336
:100C100000F0004003F1FF032DE980494FEA154B36
:100C200009B44FEA144325EA0B4E24EA03480FF2B5
:100C3000042606EB132749083E785FEA320203FBDD
:100C40000667C7F5000707FB06F64FEA54374FEA79
:100C5000D64606F1020607FB066CCCF1005C4FEAB3
:100C60001C472CEA074C07FB06F40CFB06F504EBCB
:100C700015464FEA961634BF00204FF000404FEA69
:100C8000D13706FB07FC4FEA1C4C0CFB0BF7D21BC1
:100C900003FB0CF761EB07010CFB0EF7B0EB074011
:100CA00072EB17420CFB08F734BFA2EB0742B2EB22
:100CB000074261EB17414FEA0C444FEA910706FBEC
:100CC00007FC4FEA1C4C0CFB0BF7B0EBC74072EB78
:100CD000573203FB0CF734BFA2EBC742B2EBC7425B
:100CE00061EB57310CFB0EF7B0EBC70072EB57729C
:100CF0000CFB08F734BFA2EBC702B2EBC70261EBF3
:100D00005771039F4FEA816141EA921104EBCC04D1
:100D10004FEAD1374FEA826206FB07FC42EA9012A3
:100D20004FEA80604FEA1C4C0CFB0BF7D21B03FB15
:100D30000CF761EB07010CFB0EF7B0EB074072EB11
:100D400017420CFB08F734BFA2EB0742B2EB074295
:100D500061EB17414FEA8C554FEA910704EB9C2455
:100D600006FB07FC4FEA1C4C0CFB0BF7B0EBC74033
:100D700072EB573203FB0CF734BFA2EBC742B2EB66
:100D8000C74261EB57310CFB0EF7B0EBC70072EBBB
:100D900057720CFB08F734BFA2EBC702B2EBC702D5
:100DA00061EB577115EB4C254FEA816141EA9211D5
:100DB0004FEA82624FEAD13742EA901206FB07FC03
:100DC00044F100044FEA80604FEA1C4C0CFB0BF727
:100DD000D21B03FB0CF761EB07010CFB0EF7B0EB2A
:100DE000074072EB17420CFB08F734BFA2EB074237
:100DF000B2EB074261EB174115EB1C154FEA81314D
:100E000041EA92414FEA823242EA90424FEA803010
:100E10004FEA0C7644F1000448EA03434EEA0B48DB
:100E20004FF0000EB2EB080C71EB030724BF6246D3
:100E300039464EEB0E0E4FF0000B0018524149415F
:100E40004BEB0B0BB2EB080C71EB03077BF1000BC8
:100E500024BF624639464EEB0E0E4FF0000B0018D1
:100E6000524149414BEB0B0BB2EB080C71EB030702
:100E70007BF1000B24BF624639464EEB0E0E51EA61
:100E8000020718BF46F0010616EB0E7655F1000278
:100E900054F1000103D5BDE88901BDE80088BDE833
:100EA0008901BDE80048B619524141EB0101A3F1A7
:100EB0000103704780807F7E7D7C7B7A79787776AE
:100EC00076757473727171706F6E6E6D6C6C6B6A27
:100ED0006A696868676666656464636362616160C5
:100EE000605F5F5E5E5D5D5C5C5B5B5A5A59595842
:100EF00058575756565555555454535352525251AC
:100F0000515050504F4F4F4E4E4D4D4D4C4C4C4B01
:100F10004B4B4A4A4A494949484848474747474648
:100F20004646454545444444444343434342424284
:100F300042414141002B9C4630D477002BD01CB558
:100F40004FEA370703B44FF010004FF01001BAF129
:100F5000000F06D0BCF1000FDCBF40F0080040F0ED
:100F600008014FF000000FBCBDE810400BF1010B71
:100F7000BBF1010F08BF5FEA170722BF12F10102A0
:100F800011F101014FF0004143F1000300F0004076
:100F900043EA00007047F9D35708D0E746EA06460F
:100FA00013F1400F4FEA16461FDD13F1200FDFBF8C
:100FB00016430A46002120335B42BED0C3F120070E
:100FC00046EA064602FA07F74FEA164646EA0706D9
:100FD000C3F1200722FA03F201FA07F721FA03F11D
:100FE0004FF0000342EA0702A7E746EA020646EA94
:100FF00006464FEA164646EA0106BCBF46EA0646E2
:10100000360C4FF000034FF000024FF0000194E760
:101010002DE9804C9A46934670B491E8380007C891
:1010200031EA400C48BF34EA430C03D5FFF7E6FD34
:10103000FFF780FFF0BCBDE8008C2DE9804C9A469C
:10104000934670B491E8380007C810F0804F08BF8D
:1010500013F0804F03D100F005F8FFF76BFFF0BCF1
:10106000BDE8008C20F07F4780EA030023F07F4C2E
:1010700007EB0C03A3F57C5300F00040A3F1FE0343
:1010800092F0000F00F0B38095F0000F00F0778031
:101090002DE901494FEA11404FEA144621EA004880
:1010A00000FB06FC24EA064708FB06F607FB08F8E7
:1010B00000FB07F718EB06484CEB164C4FEA124BB7
:1010C00018EB07484FEA15464CEB174022EA0B4E47
:1010D0000BFB06FC25EA06470EFB06F607FB0EFE99
:1010E0000BFB07F71EEB064E4CEB164C4FF00006C1
:1010F0001EEB074E4CEB174B18EB0B0840F10000B2
:1011000018EB0E0B58EB000840F100008F1A4FF05F
:1011100000013CBFC943661B14BFB5EB040C0021A2
:101120003CBFC943F61B4FEA17444EEA8E0E27EA2E
:1011300004454FEA1C4704FB07622CEA074C05FBF9
:1011400007F70CFB05F604FB0CFC16EB074642EB1D
:10115000174216EB0C4642EB1C421BEB060658EB03
:101160000202414146EA9E0601D5BDE80189B61951
:10117000524141EB0101A3F10103BDE801894FEAAE
:1011800014454FEA114724EA054621EA074C05FBBE
:1011900007F406FB07F70CFB06F105FB0CFC11EB53
:1011A000074144EB17444FEA124711EB0C4144EB63
:1011B0001C4422EA074C05FB07F206FB07F70CFB71
:1011C00006F605FB0CFC16EB074642EB174216EB46
:1011D0000C4642EB1C456A1854F1000148BF7047A9
:1011E000B619524141EB0101A3F10103704795F09B
:1011F000000F37D04FEA11424FEA144721EA024666
:1012000024EA074C02FB07F106FB07F70CFB06F488
:1012100002FB0CFC14EB074441EB17414FEA154766
:1012200014EB0C4441EB1C4125EA074C02FB07F58B
:1012300006FB07F70CFB06F602FB0CFC16EB074659
:1012400045EB174516EB0C4645EB1C42121951F1C4
:10125000000148BF7047B619524141EB0101A3F1AB
:10126000010370474FEA14454FEA114724EA054647
:1012700021EA074C05FB07F106FB07F70CFB06F21A
:101280004FF0000605FB0CFC12EB074241EB174147
:1012900012EB0C4251EB1C4148BF7047921841EBD6
:1012A0000101A3F1010370472DE9F04105460E4607
:1012B0001746002400BF04E0285D00F0CFFF305542
:1012C000641CBC42F8D3BDE8F081000008B50121E0
:1012D000202000F035FC0420ADF8000010208DF82F
:1012E000030003208DF802006946044800F00BF863
:1012F0000421024800F09BF808BD000000140140E2
:1013000000BFFEE770472DE9F041024600250026A8
:10131000002000230024002791F803C00CF00F05E3
:1013200091F803C00CF0100CBCF1000F03D091F841
:1013300002C04CEA050591F800C0BCF1000F31D0A5
:10134000146800202BE04FF0010C0CFA00F3B1F808
:1013500000C00CEA03069E4220D183004FF00F0C20
:101360000CFA03F7BC4305FA03FC4CEA040491F8B9
:1013700003C0BCF1280F06D14FF0010C0CFA00FCA1
:10138000C2F814C00AE091F803C0BCF1480F05D1BF
:101390004FF0010C0CFA00FCC2F810C0401C0828E9
:1013A000D1D31460B1F800C0BCF1FF0F34DD546834
:1013B00000202EE000F1080C4FF0010808FA0CF3B1
:1013C000B1F800C00CEA03069E4221D183004FF021
:1013D0000F0C0CFA03F7BC4305FA03FC4CEA0404B7
:1013E00091F803C0BCF1280F05D100F1080C08FAF0
:1013F0000CF8C2F8148091F803C0BCF1480F07D173
:1014000000F1080C4FF0010808FA0CF8C2F810803F
:10141000401C0828CED35460BDE8F081024600206D
:1014200093680B400BB1012000E000207047416140
:1014300070470161704700BFFEE7000008B5012159
:10144000442000F07DFB1C20ADF8000048208DF802
:10145000030069460648FFF756FF0120ADF800007B
:1014600028208DF8030069460248FFF74CFF08BDAD
:1014700000180140000801402DE9F04104460D46E6
:1014800016461F462A2000F0A1FAA11C88B200F0DF
:101490008EFAB11C88B200F08AFA2B2000F096FA7E
:1014A000691C88B200F083FA791C88B200F07FFAD8
:1014B0002C2000F08BFABDE8F08170B504460D4693
:1014C00016462B46224629462046FFF7D5FF3046D2
:1014D00000F06DFA70BD2DE9F04706460F46144640
:1014E0001D46DDF820A0681E83B2601E82B2394618
:1014F0003046FFF7C1FFB8460EE0B14606E0504661
:1015000000F055FA09F101001FFA80F9A145F6DB58
:1015100008F101001FFA80F8A845EEDBBDE8F0876E
:1015200008B50121102000F00BFB4FF40060ADF86E
:10153000000048208DF8030003208DF80200694662
:101540000848FFF7E0FE43F2F040ADF8000010203D
:101550008DF8030003208DF8020069460148FFF76B
:10156000D2FE08BD0010014010B5FFF7D9FF802161
:101570007B48FFF75CFF642001F0C8F980217848C0
:10158000FFF757FF642001F0C1F94FF40051744890
:10159000FFF74FFF642001F0B9F9112000F016FAAF
:1015A000782001F0B3F9B12000F010FA052000F026
:1015B00007FA3C2000F004FA3C2000F001FAB220C7
:1015C00000F004FA052000F0FBF93C2000F0F8F9E7
:1015D0003C2000F0F5F9B32000F0F8F9052000F008
:1015E000EFF93C2000F0ECF93C2000F0E9F905208F
:1015F00000F0E6F93C2000F0E3F93C2000F0E0F9CF
:10160000B42000F0E3F9032000F0DAF9C02000F084
:10161000DDF9282000F0D4F9082000F0D1F90420E9
:1016200000F0CEF9C12000F0D1F9C02000F0C8F9D7
:10163000C22000F0CBF90D2000F0C2F9002000F02C
:10164000BFF9C32000F0C2F98D2000F0B9F92A20BB
:1016500000F0B6F9C42000F0B9F98D2000F0B0F91F
:10166000EE2000F0ADF9C52000F0B0F91A2000F02E
:10167000A7F9362000F0AAF9C02000F0A1F9E02077
:1016800000F0A4F9042000F09BF9222000F098F962
:10169000072000F095F90A2000F092F92E2000F0C2
:1016A0008FF9302000F08CF9252000F089F92A20EC
:1016B00000F086F9282000F083F9262000F080F958
:1016C0002E2000F07DF93A2000F07AF9002000F099
:1016D00077F9012000F074F9032000F071F913206C
:1016E00000F06EF9E12000F071F9042000F068F9D3
:1016F000162000F065F9062000F062F90D2000F0D8
:101700005FF92D2000F05CF9262000F059F9232024
:1017100000F056F9272000F053F9272000F050F987
:10172000252000F04DF92D2000F04AF93B2000F073
:1017300047F9002000F044F9012000F041F90420AD
:1017400000F03EF9132000F03BF93A2000F03EF99A
:10175000052000F035F9292000F038F910BD00000F
:10176000001001402DE9FF5F80468A4617469B46E0
:101770000F9D00200290CDF80080284605EBD07127
:10178000C1F347042046E21704EB5272D2102146FF
:10179000E31704EB5373DB10A4EBC3030BB101237A
:1017A00000E000231A446A4392B20192A7F120009C
:1017B000C7B20AEB0500401E83B208EB0400401ECE
:1017C00082B251464046FFF757FE002669E00C2DD5
:1017D00007D107EB4700354901EB8000805D03909E
:1017E0001BE0102D05D1324800EB0710805D0390FF
:1017F00013E0182D07D107EB47002E4901EB00102D
:10180000805D039009E0202D05D12B4800EB871067
:10181000805D039001E0BDE8FF9F4FF000093AE0D2
:101820001098C8B9012000FA09F00399084018B1CE
:10183000584600F0BCF802E00E9800F0B8F80298A4
:10184000401CC0B20290029890FBF4F104FB11001E
:10185000E8B90020029021E0012000FA09F0039984
:10186000084020B15A4651464046FFF726FE08F18F
:1018700001001FFA80F80098A8EB0000A04206D1F2
:10188000DDF800800AF101001FFA80FA06E009F194
:10189000010000F0FF09B9F1080FC1DB00BF701CA7
:1018A00086B20198864292DB00BFB4E7583900083F
:1018B000CC3D0008BC4300088C5500082DE9FF4FC3
:1018C00085B0074690461D46DDE913B60021404627
:1018D00001F040FF01D288F00048304606EBD0719D
:1018E000C1F347092049404601F068FF039001F029
:1018F00011FF8246002431E0281B401EC1B20A209D
:1019000001F09AFBBAFBF0F00A21B0FBF1F201FB07
:1019100012000490681FA04210D10020691F01FB33
:101920000971CDE900B6029088B22E22129B069969
:10193000FFF718FF601CC4B2681CC5B20020CDE9D7
:1019400000B6029004993031CAB204FB097188B222
:10195000129B0699FFF706FF601CC4B2AC42CBDBBA
:1019600009B0BDE8F08F00000050C3472DE9FE4FDD
:1019700006460F4614469846DDE90D5ADDF83090CC
:1019800010E0CDE9015ACDF800902278434639465F
:101990003046FFF7E7FE284605EBD07106EB610104
:1019A0008EB2641C20780028EBD1BDE8FE8F10B504
:1019B0000446201200F01AF8E0B200F017F810BD4B
:1019C00010B50446204600F011F810BD10B50446CD
:1019D00040210548FFF72BFD204600F007F8402185
:1019E0000148FFF726FD10BD0010014070B5044608
:1019F0004FF480511248FFF71AFD002517E020210F
:101A00000F48FFF714FD04F0800020B110210C48AE
:101A1000FFF70FFD03E010210948FFF708FD202123
:101A20000748FFF706FD6006040E681CC5B2082DC6
:101A3000E5DB4FF480510248FFF7FBFC70BD00006E
:101A40000010014008B50121482000F079F820205D
:101A5000ADF8000010208DF8030003208DF802007F
:101A600069460948FFF74FFC20210748FFF7E1FCD2
:101A70002020ADF8000069460448FFF744FC20210F
:101A80000248FFF7D6FC08BD000C014000180140D9
:101A900000BFFEE77047000070B5002100230F2251
:101AA000C47804B3154C246804F4E064C4F5E0641D
:101AB000210AC1F10403CA40447804FA03F184788E
:101AC0001440214309010E4C0678A155047804F016
:101AD0001F050124AC4005786D11AD0005F1E0252E
:101AE000C5F8004109E0047804F01F050124AC406A
:101AF000044D0678761145F8264070BD0CED00E0E7
:101B000000E400E080E100E002490143024A116084
:101B1000704700000000FA050CED00E0704700007F
:101B200029B1064AD2690243044BDA6104E0034A50
:101B3000D2698243014BDA61704700000010024015
:101B400029B1064A92690243044B9A6104E0034AB0
:101B500092698243014B9A61704700000010024075
:101B600030B500210022002400232D4D6D6805F0C2
:101B70000C0121B1042905D0082923D105E0294D04
:101B8000056022E0274D05601FE0254D6D6805F4D6
:101B90007012234D6D6805F48034022505EB9242E6
:101BA0001CB9214D554305600BE01D4D6D6805F4D2
:101BB00000351DB11C4D5543056002E0194D5543DC
:101BC000056002E0174D056000BF00BF144D6D6851
:101BD00005F0F0010909154D6B5C0568DD404560B5
:101BE0000F4D6D6805F4E061090A104D6B5C4568A6
:101BF000DD4085600A4D6D6805F46051C90A0B4DE2
:101C00006B5C4568DD40C560054D6D6805F440417D
:101C1000890B074D6B5CC568B5FBF3F5056130BDFD
:101C20000010024000127A0000093D003000002040
:101C3000400000202DE9F041AEB04FF00008002038
:101C400001900090FE490860012000F085FE04220A
:101C5000694601A8FFF728FB012000F07DFE012066
:101C6000F849C1F8A8019DF80000F7490870084636
:101C7000007800F01F00F54908709DF80100F44954
:101C800008709DF80200F34908709DF80300F249BE
:101C90000870EE4800781E2878D2DFE800F00F1CAC
:101CA000293643505D6A78859DC5DDFDFCFBFAF958
:101CB000F8F7F6F5F4F3F2F1F0EFEEEDE448007822
:101CC0000004E449097840EA0120E349097808431F
:101CD000E2490860A4E2DE4800780004DD490978A2
:101CE00040EA0120DC4909780843DC49486097E272
:101CF000D74800780004D749097840EA0120D6493E
:101D000009780843D54988608AE2D1480078000400
:101D1000D049097840EA0120CF4909780843CF49E2
:101D2000C8607DE2CA4800780004CA49097840EAE0
:101D30000120C94909780843C849086170E2C448CC
:101D400000780004C349097840EA0120C2490978B3
:101D50000843C249486163E2BD4800780004BD49B8
:101D6000097840EA0120BC4909780843BB498861E9
:101D700056E2B74800780004B649097840EA0120E5
:101D8000B54909780843B549C86149E247E2B04816
:101D900000780004AF49097840EA0120AE4909788B
:101DA0000843AE4908623BE2A94800780004A9490B
:101DB000097840EA0120A84909780843A749486200
:101DC000486A01F09FFA04464FF05532A44B01F0E7
:101DD000ADFACDE90E0123E29D48007800049D494B
:101DE000097840EA01209C49097808439B498862A8
:101DF000886A01F087FA04464FF05532984B01F09B
:101E000095FACDE91001DDE90E432246DDE91061C6
:101E1000304601F089FBCDE90201DDE902432246AB
:101E200090A0FEF705FAFBE1894800780004894993
:101E3000097840EA01208849097808438749C8623F
:101E4000C86A01F05FFA04464FF05532844B01F046
:101E50006DFACDE91201E3E17D48007800047D4987
:101E6000097840EA01207C49097808437B490863E6
:101E7000086B01F047FA10E0C4E1B6E1A8E19AE18D
:101E80008CE17EE170E162E139E120E1C3E0AAE0AA
:101E900081E073E05AE031E018E004464FF055323B
:101EA0006F4B01F043FACDE91401DDE912633246CC
:101EB000DDE91441204601F037FBCDE90401DDE9FD
:101EC000044322466BA0FEF7B3F9A9E1604800780D
:101ED00000046049097840EA01205F490978084315
:101EE0005E494863486B01F00DFA04464FF05532E5
:101EF0005B4B01F01BFACDE9160191E154480078E3
:101F000000045449097840EA0120534909780843FC
:101F100052498863886B01F0F5F904464FF0553259
:101F20004F4B01F003FACDE91801DDE916633246A3
:101F3000DDE91841204601F0F7FACDE90601DDE9B7
:101F4000064322464FA0FEF773F969E14048007846
:101F500000044049097840EA01203F4909780843D4
:101F60003E49C863C86B01F0CDF904464FF05532C5
:101F70003B4B01F0DBF9CDE91A0151E1344800781F
:101F800000043449097840EA0120334909780843BC
:101F90003249086444E12E48007800042D4909784C
:101FA00040EA01202C49097808432C494864486CD0
:101FB00001F0A8F904464FF05532294B01F0B6F96B
:101FC000CDE91C01DDE91A633246DDE91C412046FA
:101FD00001F0AAFACDE90801DDE9084322462DA067
:101FE000FEF726F91CE11A4800780004194909781F
:101FF00040EA012018490978084318498864886C28
:1020000001F080F904464FF05532154B01F08EF97E
:10201000CDE91E0104E10E48007800040D4909785D
:1020200040EA01200C49097808430C49C864C86C8F
:1020300001F068F904464FF05532094B32E00000D8
:10204000A881214200802142240000202500002098
:102050002600002027000020280000206400002027
:102060005555953E444946465B305D203D202566EA
:102070000A000000444946465B315D203D2025664C
:102080000A000000444946465B325D203D2025663B
:102090000A000000444946465B335D203D2025662A
:1020A0000A00000001F042F9CDE92001DDE91E63DC
:1020B0003246DDE92041204601F036FACDE90A0139
:1020C000DDE90A43224658A0FEF7B2F8A8E05A48D4
:1020D000007800045949097840EA012058490978F4
:1020E000084358490865086D01F00CF904464FF0A3
:1020F0005532554B01F01AF9CDE9220190E04E48D6
:10210000007800044D49097840EA01204C490978DB
:1021100008434C494865486D01F0F4F804464FF017
:102120005532494B01F002F9CDE92401DDE9226382
:102130003246DDE92441204601F0F6F9CDE90C01F3
:10214000DDE90C43224641A0FEF772F868E03A4808
:10215000007800043949097840EA012038490978B3
:102160000843384988655BE0334800780004334908
:10217000097840EA01203249097808433149C865A5
:102180004EE02D48007800042C49097840EA0120EF
:102190002B49097808432B49086641E02648007816
:1021A00000042649097840EA0120254909780843B6
:1021B0002449486634E02048007800041F49097823
:1021C00040EA01201E49097808431E49886627E035
:1021D0001948007800041949097840EA0120184993
:1021E000097808431749C8661AE0134800780004C4
:1021F0001249097840EA0120114909780843114938
:1022000008670DE00C48007800040C49097840EAA2
:1022100001200B49097808430A49486700E000BFDC
:1022200000BF2EB0BDE8F081444946465B345D20D6
:102230003D2025660A00000026000020270000201F
:1022400028000020640000205555953E444946462C
:102250005B355D203D2025660A00000070B505460F
:10226000002405E0601CC4B2C82C01DD002070BD54
:1022700002210E4800F028F80028F3D029460B4828
:1022800000F02EF8002405E0601CC4B2C82C01DD6B
:102290000020ECE70121054800F016F80028F3D0F3
:1022A000024800F01AF8C0B2E1E700000038004030
:1022B00021B1028842F04002028004E002884FF619
:1022C000BF731A40028070470246002013890B40FA
:1022D0000BB1012000E0002070470146888970475B
:1022E0008181704710B50022028802F441520B88A8
:1022F0004C8823438C882343CC8823430C89234375
:102300004C8923438C892343CC8923431A4302807D
:10231000838B4FF2FF74234083830B8A038210BDAB
:10232000704710B500F002F810BD00000CB5002099
:10233000019000903348006840F4803031490860D3
:1023400000BF3048006800F4003000900198401C45
:102350000190009818B90198B0F5A06FF1D1294803
:10236000006800F4003010B10120009001E000206E
:1023700000900098012843D12348006840F01000E5
:10238000214908600846006820F0030008600846FC
:10239000006840F0020008601A4840681949486027
:1023A0000846406848600846406840F480604860DD
:1023B0000846406820F47C1048600846406840F4B5
:1023C000E81048600846006840F08070086000BF70
:1023D0000C48006800F000700028F9D009484068F7
:1023E00020F00300074948600846406840F00200BA
:1023F000486000BF0348406800F00C000828F9D18D
:102400000CBD00000010024000200240042808D14A
:102410004FF0E021096941F004014FF0E022116121
:1024200007E04FF0E021096921F004014FF0E022BC
:10243000116170477047000010B51348006840F004
:1024400001001149086008464068104908400E49DB
:102450004860084600680E4908400B490860084675
:10246000006820F4802008600846406820F4FE00E0
:1024700048604FF41F008860FFF753FF4FF0006083
:102480000449086010BD0000001002400000FFF881
:10249000FFFFF6FE08ED00E010B540F225511D48A3
:1024A00000F04AF810B31B4800F002F9C4B21A4811
:1024B000008800F40040C8B91748008800F4804044
:1024C00060B10A2C03D000201349088020E0124894
:1024D000008840F400401049088019E00D2C06D116
:1024E0000D48008840F480400B49088010E00A48FD
:1024F0000088C0F30D0009490C5407480088401CAF
:102500000549088008460088C72801DD00200880AA
:1025100010BD0000003801404C000020DC0000200D
:1025200021B1828942F40052828104E082894DF611
:10253000FF731A408281704770B502460024002361
:102540000025002040F66A16B14200D100BFC1F359
:10255000421501F01F03012606FA03F3012D02D1F3
:102560009689334006E0022D02D1168A334001E0FD
:10257000968A33400C12012606FA04F41688344079
:1025800013B10CB1012000E0002070BDF0B503468E
:10259000002400260025002040F66A17B94200D129
:1025A00000BF1846C1F3421401F01F06012707FAC5
:1025B00006F5012C01D10C3004E0022C01D11030C1
:1025C00000E014301AB107682F43076002E0076883
:1025D000AF430760F0BD00002DE9F04786B0054627
:1025E0000E460024A24600BFA1460027B08900B1D4
:1025F00000BF2F462C8A4CF6FF700440F08804433D
:102600002C82AC894EF6F3100440B088318908431F
:10261000718908430443AC81AC8A4FF6FF40044003
:10262000B0890443AC8201A8FFF79AFA1F48874299
:1026300002D1DDF810A001E0DDF80CA0A88900F4BB
:10264000004040B10AEBCA0000EB0A1031684900B3
:10265000B0FBF1F807E00AEBCA0000EB0A103168A2
:102660008900B0FBF1F86420B8FBF0F00401200908
:10267000642101FB1089A88900F4004040B1322098
:1026800000EBC900B0FBF1F000F00700044308E0E4
:10269000322000EB09106421B0FBF1F000F00F00D4
:1026A00004432C8106B0BDE8F087000000380140EB
:1026B00001468888C0F30800704700BFFEE7490064
:1026C00050EAC12018BF04204A0D18BF40F0010095
:1026D00040F2FF72B2EB515F08BF40F002000128E8
:1026E00008BF0520704700BF704700001CB50FA051
:1026F00000680190002000900D490860642000F0FF
:102700002BF90222694601A8FEF7CEFD642000F0F5
:1027100023F901200749C1F8A8010A2000F0F6F8C2
:102720009DF8011004A0FDF783FD1CBD49000000C9
:10273000A8812142008021426964203D2025780A39
:102740000000000008B501210820FFF7F9F94FF457
:102750007860ADF8000010208DF8030003208DF89C
:10276000020069460A48FEF7CEFD012009490860CB
:1027700000200949C1F8A401012006490839086070
:10278000091F086000200349091D086008BD0000FA
:10279000000C0140A88121420080214210B5002098
:1027A00005490860012000F0B1F801200349C1F893
:1027B000A00100F0ABF810BDA081214200802142B1
:1027C00010B5FFF7BFFF00F003F8FFF7E7FF10BDFC
:1027D00000B587B001210820FFF7B2F90121880375
:1027E000FFF79EF94FF46040ADF8180018208DF8FF
:1027F0001B0003208DF81A0006A91448FEF783FD7C
:102800004FF460411148FEF714FE0020ADF80400BB
:102810004FF48270ADF806000020ADF80800ADF866
:102820000A00ADF80C004FF40070ADF80E00002067
:10283000ADF81000ADF8120001A90548FFF752FDF0
:1028400001210348FFF734FD07B000BD000C014033
:102850000038004010B500200849086001200849F0
:10286000C1F8AC01052000F077F800200349091DEC
:10287000086001200249C1F8A80110BDA8812142C9
:10288000008021421FB50CA103C9CDE9020100203F
:10289000009001900A4908600A2000F05DF80822C3
:1028A000694602A8FEF700FD0A2000F055F8012055
:1028B0000449C1F8AC011FBD7002F00000FFFF3DEC
:1028C000AC8121420080214210B56FF00400FFF777
:1028D0009DFD0A4800680A49B0FBF1F009490870FB
:1028E0000846007800EB4001C1EBC0104FF6FF71C5
:1028F00001EAC0000449088010BD0000500000201B
:1029000000127A0044000020460000200146114ACF
:1029100012884A434FF0E0235A6100229A611A4616
:10292000126942F001021A6100BF4FF0E022106903
:1029300000F001021AB100F48032002AF5D04FF005
:10294000E022126922F001024FF0E0231A61002216
:102950009A617047460000200146114A12784A43A6
:102960004FF0E0235A6100229A611A46126942F040
:1029700001021A6100BF4FF0E022106900F001026D
:102980001AB100F48032002AF5D04FF0E02212692B
:1029900022F001024FF0E0231A6100229A61704791
:1029A0004400002000BF054A128802F04002002ABD
:1029B000F9D0C2B2014B1B1D1A807047003801408C
:1029C00088B0FFF781FF4FF4A060FFF79DF84FF448
:1029D000E13000F057FBFFF735F8FEF72FFDFEF76B
:1029E00075FCFEF7C1FD4FF6E070A02380220021A8
:1029F00000900846FEF76FFDFFF7E2FE6420FFF748
:102A000085FFFFF773FEFEA0FDF712FC6420FFF7C1
:102A10007DFFFFF737FF6420FFF778FFFBE2002020
:102A20000C214FF6E0721F23CDE900210290F9A29C
:102A30000146FEF79BFF00200C214FF6E0721F239A
:102A4000CDE900210290F5A2FEF790FF00200C21B5
:102A50004FF6E0721F23CDE900210290F1A2182168
:102A6000FEF784FF00200C214FF6E0721F23CDE912
:102A700000210290EDA22421FEF778FF00200C2116
:102A80004FF6E0721F23CDE900210290E9A2302128
:102A9000FEF76CFF00200C214FF6E0721F23CDE9FA
:102AA00000210290E5A23C21FEF760FF00200C21EE
:102AB0004FF6E0721F23CDE900210290E1A24821E8
:102AC000FEF754FF00210C204FF6E0721F23CDE9E2
:102AD00000200291DDA254210020FEF747FF0020D4
:102AE0000C214FF6E0721F23CDE900210290D9A2FC
:102AF0006021FEF73BFF00200C214FF6E0721F2300
:102B0000CDE900210290D5A26C21FEF72FFF002015
:102B10000C214FF6E0721F23CDE900210290D1A2D3
:102B20007821FEF723FF00200C214FF6E0721F23CF
:102B3000CDE900210290CDA28421FEF717FF0020ED
:102B40000C214FF6E0721F23CDE900210290C9A2AB
:102B50009021FEF70BFF00F07BFAC848006A019055
:102B600000F0D0FB4FF05532C54BCDE9020100F02B
:102B7000DDFBCDE9040100F0EBFA06900C204FF6E6
:102B8000E0711F220723CDE90021029000212D20B2
:102B9000069AFEF793FEB948406A019000F0B2FB36
:102BA0004FF05532B64BCDE9020100F0BFFBCDE945
:102BB000040100F0CDFA0C214FF6E07206901F20C0
:102BC0000723CDE9012100902D20069AFEF776FE1D
:102BD000AA48806A019000F095FB4FF05532A84B4F
:102BE000CDE9020100F0A2FBCDE9040100F0B0FA4A
:102BF00006900C204FF6E0711F220723CDE900213B
:102C0000029018212D20069AFEF758FE9B48C06AB4
:102C1000019000F077FB4FF05532994BCDE902015E
:102C200000F084FBCDE9040100F092FA0C214FF68C
:102C3000E07206901F200723CDE901210090242196
:102C40002D20069AFEF73AFE8C48006B019000F0AA
:102C500059FB4FF055328A4BCDE9020100F066FB7B
:102C6000CDE9040100F074FA0C224FF6E0710690F1
:102C70001F2007238DE8070030212D20069AFEF73C
:102C80001DFE7E48406B019000F03CFB4FF055323A
:102C90007B4BCDE9020100F049FBCDE9040100F0D6
:102CA00057FA06900C204FF6E0711F220723CDE95A
:102CB000002102903C212D20069AFEF7FFFD6F486F
:102CC000806B019000F01EFB4FF055326C4BCDE94C
:102CD000020100F02BFBCDE9040100F039FA0C21D0
:102CE0004FF6E07206901F200723CDE901210090E6
:102CF00048212D20069AFEF7E1FD6048C06B019047
:102D000000F000FB4FF055325D4BCDE9020100F0C1
:102D10000DFBCDE9040100F01BFA0C214FF6E07227
:102D200006901F200723CDE90121009054212D207A
:102D3000069AFEF7C3FD5148006C019000F0E2FADC
:102D40004FF055324E4BCDE9020100F0EFFACDE9DC
:102D5000040100F0FDF90C214FF6E07206901F20EF
:102D60000723CDE90121009060212D20069AFEF76E
:102D7000A5FD4248406C019000F0C4FA4FF0553276
:102D80003F4BCDE9020100F0D1FACDE9040100F09A
:102D9000DFF906900C204FF6E0711F220723CDE9E2
:102DA000002102906C212D20069AFEF787FD334802
:102DB000806C019000F0A6FA4FF05532304BCDE90F
:102DC000020100F0B3FACDE9040100F0C1F90C21D1
:102DD0004FF6E07206901F200723CDE901210090F5
:102DE00078212D20069AFEF769FD2448C06C0190D9
:102DF00000F088FA4FF05532214BCDE9020141E055
:102E0000616473313235385F696E69742E2E2E0A13
:102E10000000000041494E303A00000041494E3167
:102E20003A00000041494E323A00000041494E3319
:102E30003A00000041494E343A00000041494E3505
:102E40003A00000041494E363A00000041494E37F1
:102E50003A00000041494E383A00000041494E39DD
:102E60003A00000041494E31303A000041494E31AC
:102E7000313A000041494E31323A000064000020EE
:102E80005555953E00F052FACDE9040100F060F985
:102E90000C214FF6E07206901F200723CDE9012197
:102EA000009084212D20069AFEF708FD5A48006DF7
:102EB000019000F027FA4FF05532584BCDE902014E
:102EC00000F034FACDE9040100F042F90C214FF68C
:102ED000E07206901F200723CDE901210090902188
:102EE0002D20069AFEF7EAFC4FF4FA70FFF70EFD6C
:102EF0004FF6E070A0238022002100900846FEF7E4
:102F0000EAFA00200C214FF6E0721F23CDE90021E0
:102F1000029043A20146FEF729FD00200C214FF646
:102F2000E0721F23CDE9002102903FA2FEF71EFDB3
:102F300000200C214FF6E0721F23CDE90021029002
:102F40003BA21821FEF712FD3348406D019000F0BE
:102F5000D9F94FF05532314BCDE9020100F0E6F9D5
:102F6000CDE9040100F0F4F806900C204FF6E07172
:102F70001F220723CDE90021029000212D20069A6F
:102F8000FEF79CFC2448806D019000F0BBF94FF0E7
:102F90005532224BCDE9020100F0C8F9CDE9040118
:102FA00000F0D6F806900C204FF6E0711F220723A0
:102FB000CDE90021029001462D20069AFEF77EFC05
:102FC0001548C06D019000F09DF94FF05532134B3C
:102FD000CDE9020100F0AAF9CDE9040100F0B8F84A
:102FE0000C214FF6E07206901F200723CDE9012146
:102FF000009018212D20069AFEF760FC4FF4FA701D
:10300000FFF784FC4FF6E070A0238022002100909F
:103010000846FEF760FA02E5640000205555953E2B
:1030200041494E31333A000041494E31343A0000B3
:1030300041494E31353A000010B50246012000E00A
:1030400050430B1EA1F10104E1B2F9D110BD000003
:1030500010B542F21074FFF7FDFB0DE04FF4805104
:103060000748FEF7DBF930B9FEF7E4FD012800D18F
:1030700004E0FFF7EFFB641E002CEFD100BF10BD92
:10308000000C014010B586B00446012144F2040052
:10309000FEF756FD4FF40070ADF8140003208DF8D4
:1030A000160018208DF8170005A91C48FEF72BF90B
:1030B0004FF48060ADF8140004208DF8170005A9C6
:1030C0001648FEF720F925208DF8000001208DF824
:1030D00001008DF802008DF803006846FEF7DCFC65
:1030E00001940020ADF80800ADF80A00ADF80C001E
:1030F000ADF810000C20ADF80E0001A90848FFF74C
:103100006BFA012240F225510548FFF73FFA0121F1
:103110000348FFF705FA06B010BD000000080140A3
:103120000038014010B500290AD00878002807D0DF
:1031300005487844FDF7B0FC002801D0002010BD00
:103140000248784410BD00001E42000016420000F4
:1031500021F00042A2F16052B2F5801F01F000435D
:1031600028BFD2F17F6C0BD95FEA001C43EAC20290
:1031700042EB507018BF704728BF20F00100704725
:10318000B2F5801FBCBF184670474FEA410C1CF5D2
:10319000001F02D2084600F0D8BB70B500F070F9ED
:1031A00000000089FFF7F6BF4FF00040A0F5800057
:1031B0007047000010B591EA030F48BF83F0004349
:1031C00000F1BA81841A71EB030C05D2121943EB9A
:1031D0000C03001B61EB0C01DFF824E14FEA1154F2
:1031E000A4EB135C1EEA430F18BF9EEA445F73D042
:1031F00023EA0E03DCF1200E21EA045143F480138C
:1032000032D322FA0CFE10EB0E0023FA0CFE41EB37
:103210000E01CCF1200E03FA0EFE10EB0E0051F160
:103220000001B1F5801FCCF1200E32D201EB045128
:1032300012FA0EF2BDE8104058BF7047401C38BF6C
:103240005FEA420218BF7047002814BF20F0010057
:1032500041F100014FEA410313F5001F38BF7047E9
:10326000A1F1C04100F05AB9012A43EB0302ACF1CD
:10327000200CDCF11F0E32BF4FF0000E23FA0CF3CE
:1032800010EB030041EB0451B4EB115FD0D0A1EB84
:10329000045101F5801149085FEA300001EB045147
:1032A0000ED350F1000038BF12FA0EFE08D1BDE86F
:1032B0001040C9E7401C38BF5FEA4202CAD1C3E7E9
:1032C000BDE810404FEA410313F5001F38BF7047B7
:1032D000A1F1C04100F022B99EEA445F08D011EA92
:1032E0005E0FBDE8104004BF01F0004100207047B0
:1032F000BDE8104070B500F0C3F800BF64FBBE3EEF
:103300000000E0FFB0FA80F310FA03F10AD0C3F135
:103310001D0303F580634FEA41504FEA035202EB6D
:10332000D12170474FF0000070470000DFF848C11E
:1033300070B51CEA111E1EBF1CEA13159EEA0C0F85
:1033400095EA0C0F00F06F8081EA030423EA4C1326
:103350004EEAD47E21EA4C1141F4801143F48013EB
:10336000AE44A1FB024CA0FB0365AEF17F7E361993
:1033700055EB0C05A1FB034C4CF10003A0FB021C18
:1033800016EB0C06654153F10003094218BF46F0E5
:10339000010613F4007F0BD14FEA03314FEA0530E9
:1033A000340341EA155140EA16506FF003020AE077
:1033B0004FEAC3214FEAC520F40241EA555140EAE1
:1033C00056506FF0020202EB2E4201EB025585EAE5
:1033D000CE710AD05FEA440C18BF24F0004450F1CB
:1033E000000041F1000120EAD47040F2FE7C624509
:1033F00000D270BDA84214BF4FF080444FF040444B
:10340000002E08BF0024BEF1806FA8BFA1F1C0410B
:10341000BDE8704080F282804FF0000001F1C041B1
:1034200001F0004170479EEA0C0F0CEA131518BF1B
:1034300095EA0C0F06D04FF0000081EA030E0EF063
:10344000004170BD00F01CF88900013E00F007B893
:1034500000F009B84FEA430C5FEA5C5C08D081EAEF
:10346000030100F05BB84FEA410C5FEA5C5CF6D107
:103470004FF00000014970470000FF070000F87F8F
:103480000EF1020E2EF0030E5EF8046B364205D4E8
:10349000012A43EB030515F5001F12D8012841EB63
:1034A000010C1CF5001F0CD80ED14FEAD17C15F58C
:1034B000001F0CEB4C0C0CF1020C08BF4CEBD37C46
:1034C00004E04FF0080C01E04FEAD37C0CEB4C0514
:1034D00026FA05F606F00706B6F1040C06D20EEB46
:1034E000860CBDE870404CF0010C6047DFE80CF042
:1034F000090B02024FF000414FF00000A1F500213E
:1035000070BD19461046012851EB010418BFD4F5CF
:10351000001484BF002001F0004170BD0808A0F530
:1035200000114FEA3101704710B591EA030F48BF0F
:1035300083F000433FF546AE841A71EB030C07D2CB
:1035400012198CF0004C43EB0C03001B61EB0C01D7
:10355000DFF8A4E14FEA1154A4EB135C1EEA430F19
:1035600018BF9EEA445F00F0B08023EA6E03524227
:1035700021EA0451C3EB6E0338BF5B1EDCF1200E61
:1035800025D322FA0CFE10EB0E0043FA0CFE41EBA1
:103590000E01CCF1200E03FA0EFE10EB0E0051F1DD
:1035A0000001CCF1200E29D412FA0EF201EB0451E5
:1035B000BDE8104058BF7047401C1CBFB2F1004F1F
:1035C000704700280CBF491C20F00100704712EB27
:1035D000020E43EB030218BF4FF0010E4EEA420207
:1035E000ACF1200CDCF11E0E54D943FA0CFE10EBAA
:1035F0000E0051F1FF31CCF11E0ED5D50EF1010EAA
:1036000012FA0EFE404141EB010101EB445C5FEA1E
:103610005C5C10D910EBDE7001EB045138BFBEF1D9
:10362000004FBDE8104018BF704700280CBF491C70
:1036300020F00100704730D24FEAD42C11F5001170
:1036400024F400641BD0B1FA81F20B3AA41AA41E30
:10365000D2F12003914030FA03F31943904001EB7B
:10366000CC71002C01EB0451BDE81040A8BF70479D
:1036700001F1C0414FF0000001F000417047B0FA85
:1036800080F310FA03F100D110BDE41A173C48058D
:10369000C90AE4E701EB045110BD491001EB0451E4
:1036A000BDE810404FEA300002E04FF000017047E3
:1036B0004A0008BF0042F8D0B2F5001F28BF70478B
:1036C00001F000414FF0000070479EEA445F07D0D0
:1036D00011EA5E0FBDE8104004BF002100207047D2
:1036E000BDE8104070B5FFF7CBFE00BF40DFF63EEF
:1036F00083F00041104670470000E0FF401058BFC3
:10370000C0F14040491058BFC1F140418142EFF340
:1037100000807047C10DD1F19E0206DB4FEA002305
:1037200043F0004323FA02F07047004207D54FEA06
:103730004001B1F1FE4F02D24FF00000704710B5CA
:1037400000F0BDF849922480002070476FEA200005
:103750007047000050EA010C00F113801CF5000FC7
:1037600058BFBCF5000F01D48842704707D710F549
:10377000000F58BF11F5000F15D4884270478942D9
:1037800070471CF5000F04D5BCF5000FF7D581423A
:1037900070474FF0807C1CEB400F38BF1CEB410F93
:1037A00001D28142704710B500F089F89224490097
:1037B0004FF000504FF08051FFF7A0BF4FF47F0C47
:1037C0001CEAD0121EBF1CEAD11392EA0C0F93EA36
:1037D0000C0F00F0478090EA010F48BF42F480725E
:1037E0004FF0004C4CEA00204CEA012102EB0302AE
:1037F000A0FB0113A2F50002002918BF43F001034A
:103800005B0028BF4FEA330342EB22425FEA132CEE
:103810004CEBC2502EBFBCEB436FB2F57C0F704730
:103820004FEA036CBCF1004F08BF20F00100B2F575
:103830007C0F38BF70470BD582F0FF0212F5803F36
:10384000C8BF704700F1C040D8BF00F000407047CB
:1038500000F5000C5FEA4C0C48BF7047B0F1C04067
:1038600000F073B890EA010F0CEAD11348BF42F49C
:103870008072624538BF634504D280EA010000F0DF
:103880000040704710B500F01AF800BF8900013EF3
:1038900000F007B800F009B85FEA410C5FEA1C6C61
:1038A00008D080EA010000F050B85FEA400C5FEAFF
:1038B0001C6CF6D14FF00040A0F5800070470EF16F
:1038C000020E2EF0030E5EF8044B244204D44FEA9D
:1038D0004102B2F17F4F11D84FEA4003B3F17F4F5D
:1038E0000CD80ED14FEAD07CB2F17F4F0CEB4C0CD0
:1038F0000CF1020C08BF4CEBD17C04E04FF0080C3B
:1039000001E04FEAD17C0CEB4C0324FA03F404F001
:103910000704B4F1040C06D20EEB840CBDE8104091
:103920004CF0010C6047DFE80CF0070802024FF092
:103930000040A0F5800010BD0846420018BFD2F13B
:10394000807288BF00F0004010BDFF2141EAD050D6
:10395000C0057047FCF70EBE00000000000000002C
:10396000000000000000040404040400000400003F
:1039700014140A00000000000000000000000A0A01
:103980001F0A0A1F0A0A000000040E1505060C147F
:10399000150E0400000012150D152E2C2A12000021
:1039A0000000040A0A36151529160000020201005B
:1039B00000000000000000001008080404040404D3
:1039C000080810000204040808080808040402009B
:1039D00000000004150E0E15040000000000000891
:1039E000083E080800000000000000000000000081
:1039F0000202010000000000003F00000000000083
:103A00000000000000000000000200000020101074
:103A1000080804040202010000000E111111111126
:103A2000110E00000000040604040404040E00004B
:103A300000000E1111080402011F000000000E1109
:103A4000100C1010110E00000000080C0C0A091FC9
:103A5000081C000000001F01010F1110110E0000D2
:103A600000000C12010D1311110E000000001E10B9
:103A7000080804040404000000000E11110E1111C6
:103A8000110E000000000E11111916100906000099
:103A9000000000000400000000040000000000001E
:103AA00000040000000404000000100804020204E6
:103AB00008100000000000003F003F000000000070
:103AC00000000204081010080402000000000E119B
:103AD000110804040004000000001C22292D2D1DE3
:103AE000221C0000000004040C0A0A1E123300000D
:103AF00000000F12120E1212120F000000001E1111
:103B000001010101110E000000000F121212121229
:103B1000120F000000001F120A0E0A02121F0000FE
:103B200000001F120A0E0A020207000000001C1209
:103B300001013911120C000000003312121E121282
:103B40001233000000001F0404040404041F0000DA
:103B500000003E0808080808080809070000371296
:103B60000A060A12123700000000070202020202CF
:103B7000223F000000003B1B1B1B151515350000E4
:103B800000003B1216161A1A1217000000000E1140
:103B900011111111110E000000000F12120E02027D
:103BA0000207000000000E1111111117190E180064
:103BB00000000F12120E0A121237000000001E1130
:103BC00001060810110F000000001F150404040472
:103BD000040E00000000331212121212120C000028
:103BE00000003312120A0A0C04040000000015152C
:103BF00015150E0A0A0A000000001B0A0A04040A2E
:103C00000A1B000000001B0A0A0A0404040E00003C
:103C100000001F0908040402121F00001C04040411
:103C20000404040404041C00000202040404080840
:103C3000081010000E0808080808080808080E00F8
:103C4000040A000000000000000000000000000066
:103C5000000000000000003F02040000000000001F
:103C60000000000000000000000C121C123C0000CC
:103C700000030202020E1212120E000000000000E9
:103C8000001C1202120C000000181010101C12125E
:103C9000123C000000000000000C121E021C00007C
:103CA00000182404041E0404041E00000000000088
:103CB000003C120C021C221C00030202020E121213
:103CC000123700000004040000060404040E000083
:103CD00000080800000C0808080808070003020292
:103CE000021A0A060A13000000070404040404046C
:103CF000041F000000000000000F1515151500003E
:103D000000000000000F1212123700000000000037
:103D1000000C1212120C000000000000000F121222
:103D2000120E020700000000001C1212121C1038B4
:103D300000000000001B0602020700000000000057
:103D4000001E020C101E000000000004041E0404EB
:103D5000041C000000000000001B1212123C0000B6
:103D600000000000001B0A0A04040000000000001C
:103D70000015150E0A0A000000000000001B0A04CE
:103D80000A1B000000000000003312120C0804039C
:103D900000000000001E0804041E000018080808A7
:103DA000080C080808081800080808080808080887
:103DB00008080808060404040408040404040600AF
:103DC00016090000000000000000000000000000D4
:103DD00000000000000000000000000000000008DB
:103DE00008080808080800001818000000486C249B
:103DF000120000000000000000000000000000248D
:103E000024247F1212127F12121200000000081CDC
:103E10002A2A0A0C1828282A2A1C0808000000222E
:103E2000251515152A585454542200000000000C82
:103E30001212120A76252911916E0000000606045E
:103E400003000000000000000000000000402010FF
:103E50001008080808080810102040000002040894
:103E600008101010101010080804020000000000D4
:103E700008086B1C1C6B0808000000000000000014
:103E8000080808087F080808080000000000000073
:103E9000000000000000000006060403000000000F
:103EA00000000000FE000000000000000000000014
:103EB0000000000000000000060600000000804036
:103EC000402020101008080404020200000000181E
:103ED00024424242424242422418000000000008AC
:103EE0000E08080808080808083E00000000003C0A
:103EF0004242422020100804427E00000000003CA4
:103F00004242201820404042221C000000000020B5
:103F10003028242422227E20207800000000007E09
:103F20000202021A26404042221C00000000003813
:103F30002402021A26424242241800000000007E99
:103F40002222101008080808080800000000003CA1
:103F50004242422418244242423C00000000001821
:103F60002442424264584040241C000000000000EB
:103F700000001818000000001818000000000000E1
:103F800000000008000000000008080400000040D5
:103F90002010080402040810204000000000000067
:103FA00000007F0000007F00000000000000000211
:103FB0000408102040201008040200000000003C0B
:103FC0004242464020101000181800000000001C5B
:103FD000225A555555552D42221C0000000000085C
:103FE00008181414243C224242E700000000001F7D
:103FF0002222221E22424242221F00000000007C98
:104000004242010101010142221C00000000001F88
:104010002242424242424242221F00000000003F30
:104020004212121E12120242423F00000000003FE4
:104030004212121E12120202020700000000003C8F
:104040002222010101712122221C0000000000E750
:10405000424242427E42424242E700000000003EAD
:104060000808080808080808083E00000000007C4E
:1040700010101010101010101010110F0000007709
:1040800022120A0E0A1212222277000000000007F4
:104090000202020202020202427F000000000077D8
:1040A000363636362A2A2A2A2A6B0000000000E318
:1040B00046464A4A52525262624700000000001CC3
:1040C0002241414141414141221C00000000003F8A
:1040D000424242423E020202020700000000001C6F
:1040E0002241414141414D53321C60000000003FDC
:1040F0004242423E1212222242C700000000007CCF
:104100004242020418204042423E00000000007F6C
:104110004908080808080808081C0000000000E713
:104120004242424242424242423C0000000000E71A
:104130004242222424141418080800000000006BD6
:10414000494949495555362222220000000000E71E
:10415000422424181818242442E7000000000077A5
:104160002222141408080808081C00000000007E21
:104170002120101008040442423F00000078080883
:104180000808080808080808080878000000020263
:10419000040408080810102020204040001E1010C1
:1041A000101010101010101010101E0000384400D5
:1041B00000000000000000000000000000000000FF
:1041C0000000000000000000000000FF00060800E2
:1041D00000000000000000000000000000000000DF
:1041E0000000003C4278444242FC00000000000312
:1041F0000202021A26424242261A00000000000073
:104200000000003844020202443800000000006050
:10421000404040784442424264D800000000000020
:104220000000003C427E0202423C0000000000F020
:104230008808087E08080808083E00000000000002
:104240000000007C22221C023C42423C0000000391
:104250000202023A4642424242E700000000000CDD
:104260000C00000E08080808083E0000000000309E
:1042700030000038202020202020221E00000003D3
:1042800002020272120A1612227700000000000ECB
:104290000808080808080808083E00000000000098
:1042A0000000007F9292929292B7000000000000FE
:1042B0000000003B4642424242E70000000000008E
:1042C0000000003C42424242423C0000000000002C
:1042D0000000001B26424242221E0207000000008E
:1042E0000000007844424242447840E00000000070
:1042F000000000774C040404041F000000000000CC
:104300000000007C42023C40423E000000000000F1
:104310000008083E080808080830000000000000F7
:10432000000000634242424262DC000000000000E4
:10433000000000E7422424140808000000000000E8
:10434000000000EB49495555222200000000000002
:104350000000007624181818246E000000000000E9
:10436000000000E742242414180808070000000099
:104370000000007E22100808447E000000C02020BB
:1043800020202010202020202020C00010101010FD
:104390001010101010101010101010100006080847
:1043A0000808081008080808080806000C32C200AF
:1043B00000000000000000000000000000000000FD
:1043C00000000000000000000000000000000000ED
:1043D00000000000000000000000000000000000DD
:1043E00000000000000000000000000000000000CD
:1043F000000000006000600060006000600060007D
:1044000060004000200020002000000000000000AC
:10441000600060006000000000000000000000007C
:104420006006600630039801880044000000000028
:10443000000000000000000000000000000000007C
:10444000000000000000000000000000000000006C
:10445000000000001002100210021002FE07FE070A
:1044600008020801080108010801FE07FE0704010F
:10447000040104010401000000000000000000002D
:10448000000040004000F00158034C03CC034C00F6
:1044900058007000E000C001C00140034C035C0301
:1044A0004C034801F0004000400000000000000004
:1044B000000000000E010A019100910091005100DE
:1044C00051003A00AE03A0025004500448044804CE
:1044D0004804840284030000000000000000000083
:1044E0000000000038006C006C006C006C006C0078
:1044F0002C0098071C011A01330133016301E3000A
:10450000C308C6093C0700000000000000000000CE
:104510000C001C0010001000080004000000000047
:10452000000000000000000000000000000000008B
:10453000000000000000000000000000000000007B
:1045400000040002000180008000400040002000C4
:10455000200020002000200020002000400040001B
:104560008000800000010002000400000000000044
:10457000020004000800100010002000200040008D
:10458000400040004000400040004000200020006B
:1045900010001000080004000200000000000000ED
:1045A00000000000000000004000C0004000460C79
:1045B0004E0FD001F0015E0F460C4000400040005D
:1045C00000000000000000000000000000000000EB
:1045D000000000000000000000004000400040001B
:1045E00040004000FE0F40004000400040004000FE
:1045F00000000000000000000000000000000000BB
:1046000000000000000000000000000000000000AA
:10461000000000000000000000000000000000009A
:104620000C001C0010001000080004000000000036
:10463000000000000000000000000000000000007A
:1046400000000000FE070000000000000000000065
:10465000000000000000000000000000000000005A
:10466000000000000000000000000000000000004A
:10467000000000000000000000000000000000003A
:104680001C001C001C0000000000000000000000D6
:104690000004000600020003000100018000800009
:1046A00040004000600020002000100010000800C2
:1046B00008000C00040006000200000000000000DA
:1046C000000000000000F00098010C030C03060637
:1046D00006060606060606060606060606060C0377
:1046E0000C039801F0000000000000000000000032
:1046F00000000000000040007C00600060006000DE
:1047000060006000600060006000600060006000A9
:1047100060006000FC0300000000000000000000DA
:10472000000000000000F8008401020306030603F5
:10473000000300018001C00060002000100008029A
:1047400004020602FE03000000000000000000005A
:104750000000000000007800C6008601860180018C
:104760008001C00070008001000100030003060307
:1047700006038601F80000000000000000000000B1
:1047800000000000000080018001C001A001A00124
:1047900090018801880184018201FE0F800180015F
:1047A00080018001E0070000000000000000000020
:1047B000000000000000FC030400040004000400EA
:1047C0000400F4008C010403000300030603060345
:1047D00082018401F80000000000000000000000D9
:1047E000000000000000E00118030C030C000400AE
:1047F0000600E60116030E06060606060606040671
:104800000C021803F000000000000000000000008F
:10481000000000000000F8070C060402040100017B
:104820000001800080004000400040006000600007
:104830006000600060000000000000000000000058
:10484000000000000000F8010C030606060606063C
:104850000C021C03F000C8010C030606060606063F
:1048600006060C03F001000000000000000000003C
:10487000000000000000F0000C010C030602060618
:104880000606060606078C067806000600030003E7
:104890000C018C0178000000000000000000000006
:1048A0000000000000000000000000000000000008
:1048B000E000E000E0000000000000000000000058
:1048C000E000E000E0000000000000000000000048
:1048D00000000000000000000000000000000000D8
:1048E0006000600000000000000000000000000008
:1048F0000000600060004000200020000000000078
:1049000000000000000400020001800040002000C0
:104910001000080004000800100020004000800083
:104920000001000200040000000000000000000080
:104930000000000000000000000000000000000077
:10494000FE07000000000000FE070000000000005D
:104950000000000000000000000000000000000057
:10496000000000000400080010002000400080004B
:10497000000100020004000200018000400020004D
:10498000100008000400000000000000000000000B
:10499000000000000000E0031806040C040C0C0CDE
:1049A0000C0C0007800140004000400000000000A7
:1049B000E000E000E0000000000000000000000057
:1049C00000000000E00018030C02CC056405660539
:1049D000A605B604B604B604B604B602E4010C0497
:1049E0000C021803F00000000000000000000000AE
:1049F000000000000000600060005000D000900047
:104A00009000880088010801F801040304030402EF
:104A1000020202060F0F000000000000000000006C
:104A2000000000000000FE008C030C030C030C03CC
:104A30000C038C01FC000C030C020C060C060C068B
:104A40000C060C03FE010000000000000000000046
:104A5000000000000000E00318030C060C0404042E
:104A600006000600060006000600060006040C0408
:104A70000C021803F000000000000000000000001D
:104A80000000000000007F008C010C030C030C06EA
:104A90000C060C060C060C060C060C060C060C0389
:104AA0000C038C017F0000000000000000000000EB
:104AB000000000000000FF030603060406040600D1
:104AC00086008600FE00860086008600060006043A
:104AD00006040602FF0300000000000000000000C2
:104AE000000000000000FF030603060406040600A1
:104AF00086008600FE00860086008600060006000E
:104B0000060006001F00000000000000000000007A
:104B1000000000000000F00018010C020C0204026A
:104B20000600060006000600C60F060306030C0377
:104B30000C031803F000000000000000000000005B
:104B40000000000000000F0F060606060606060617
:104B500006060606FE0706060606060606060606FC
:104B6000060606060F0F000000000000000000000F
:104B7000000000000000FC036000600060006000B6
:104B80006000600060006000600060006000600025
:104B900060006000FC030000000000000000000056
:104BA000000000000000F807C000C000C000C00006
:104BB000C000C000C000C000C000C000C000C000F5
:104BC000C000C000C000C60066003C00000000003D
:104BD000000000000000CF038601C600460026004A
:104BE000160036002E006E004600C60086008601C4
:104BF000060106038F07000000000000000000000F
:104C00000000000000001F0006000600060006006D
:104C10000600060006000600060006000600060460
:104C200006040602FF030000000000000000000070
:104C30000000000000000707860386038E038E0332
:104C40004E034E034A035A035A033A033203320314
:104C5000320312038707000000000000000000007C
:104C60000000000000008E0F0C021C021C02340227
:104C70003402640264024402C40284028403840392
:104C8000040304031F0200000000000000000000F5
:104C9000000000000000F00098010C030C02060662
:104CA00006060606060606060606060606060C02A2
:104CB0000C039801F000000000000000000000005C
:104CC000000000000000FF000603060606060606B8
:104CD000060606068603FE0006000600060006001D
:104CE000060006001F000000000000000000000099
:104CF000000000000000F00098010C030C02060602
:104D000006060606060606060606060676064C0291
:104D1000CC039801F00080070003000000000000B1
:104D2000000000000000FF01060306060606060656
:104D300006060603FE004600C6008600860106033E
:104D4000060306060F0E0000000000000000000031
:104D5000000000000000F8020C0306020602060034
:104D60000E003C00F800E003800300070206020684
:104D700006060C03F0010000000000000000000027
:104D8000000000000000FE07620461086108600086
:104D90006000600060006000600060006000600013
:104DA00060006000F801000000000000000000004A
:104DB0000000000000001E070C020C020C020C0296
:104DC0000C020C020C020C020C020C020C020C0273
:104DD0000C021801F00000000000000000000000BC
:104DE0000000000000000F070602040104010C018E
:104DF0000C01880088009800980050005000700056
:104E00003000200020000000000000000000000032
:104E1000000000000000F70E62044204460446044D
:104E200064026402E402E4029C029C01980198017D
:104E300088018800880000000000000000000000D9
:104E40000000000000009E070C01080118019000FE
:104E5000B0006000200060006000D0009000880179
:104E6000080104038E07000000000000000000009D
:104E70000000000000000F0F060404020C020801ED
:104E80001801B800B00070006000600060006000B1
:104E900060006000F8010000000000000000000059
:104EA000000000000000FC070C0206030201800164
:104EB000800040004000200020001000180008047E
:104EC0000C040402FE0300000000000000000000CB
:104ED000E00320002000200020002000200020000F
:104EE00020002000200020002000200020002000C2
:104EF0002000200020002000E0030000000000004F
:104F00000000000004000400080008001000100069
:104F100010002000200040004000C0008000800001
:104F20000001000100020002000200040000000075
:104F30007C00400040004000400040004000400035
:104F40004000400040004000400040004000400061
:104F500040004000400040007C0000000000600075
:104F600090000801000000000000000000000000A8
:104F70000000000000000000000000000000000031
:104F80000000000000000000000000000000000021
:104F90000000000000000000000000000000000011
:104FA0000000000000000000000000000000000001
:104FB00000000000000000000000FF0F00000000E3
:104FC0001800600000000000000000000000000069
:104FD00000000000000000000000000000000000D1
:104FE00000000000000000000000000000000000C1
:104FF00000000000000000000000000000000000B1
:10500000F0010C030C030003E0031C030E03060372
:1050100006038E0B7C0E0000000000000000000064
:105020000000000008000E000C000C000C000C003A
:10503000CC013C031C060C060C060C060C060C06E8
:105040000C021C03E401000000000000000000004E
:105050000000000000000000000000000000000050
:10506000F0008C018C018601060006000600060295
:105070000C020C01F0000000000000000000000025
:10508000000000000002C00300030003000300034F
:1050900078038C030C0306030603060306030603CA
:1050A00004038C07780100000000000000000000ED
:1050B00000000000000000000000000000000000F0
:1050C000E001180308020C060C06FC070C000C009B
:1050D00018041802E00100000000000000000000B9
:1050E000000000000000C003600630063000300001
:1050F000FE01300030003000300030003000300061
:1051000030003000FC010000000000000000000042
:10511000000000000000000000000000000000008F
:10512000F007D8068C018C018C019801F8000C0066
:10513000FC00CC03060306038E03F8000000000009
:105140000000000008000E000C000C000C000C0019
:10515000EC011C030C030C030C030C030C030C03E9
:105160000C030C039E07000000000000000000007C
:10517000000000000000600060000000000040002F
:105180007C00600060006000600060006000600003
:1051900060006000FC030000000000000000000050
:1051A000000000000000C001C0010000000000017C
:1051B000F001800180018001800180018001800177
:1051C0008001800180018001CC007C000000000093
:1051D0000000000008000E000C000C000C000C0089
:1051E0008C038C008C004C006C005C008C008C01EB
:1051F0000C010C039E0700000000000000000000EE
:105200000000000040007C00600060006000600062
:10521000600060006000600060006000600060008E
:1052200060006000FC0300000000000000000000BF
:10523000000000000000000000000000000000006E
:105240003707EE06660666066606660666066606A4
:1052500066066606FF0F0000000000000000000068
:10526000000000000000000000000000000000003E
:10527000EE011C030C030C030C030C030C030C03C6
:105280000C030C039E07000000000000000000005B
:10529000000000000000000000000000000000000E
:1052A000F00098010C03060606060606060606062A
:1052B0000C030C03F00000000000000000000000E0
:1052C00000000000000000000000000000000000DE
:1052D000EE011C030C060C060C060C060C060C0654
:1052E0000C031C03EC010C000C003E00000000004D
:1052F00000000000000000000000000000000000AE
:1053000078028C030C030603060306030603060358
:1053100004038C03780300030003C00700000000AF
:10532000000000000000000000000000000000007D
:105330009F035806380618001800180018001800B7
:1053400018001800FF00000000000000000000002E
:10535000000000000000000000000000000000004D
:10536000F0031C030C020C023800F000C00304031D
:1053700004038C03FC01000000000000000000009A
:10538000000000000000000020002000300030007D
:10539000FE013000300030003000300030003000BE
:1053A00030023002E00100000000000000000000B8
:1053B00000000000000000000000000000000802E3
:1053C0008E030C030C030C030C030C030C030C03E3
:1053D0000C039C07780100000000000000000000A2
:1053E00000000000000000000000000000000000BD
:1053F0001E070C020801080118019000B000B0005F
:1054000060006000200000000000000000000000BC
:10541000000000000000000000000000000000008C
:10542000F70E6204460464026402EC029C019801D7
:105430009801980108000000000000000000000032
:10544000000000000000000000000000000000005C
:10545000BC0718011001B00060006000E00090007F
:10546000080108039E070000000000000000000083
:10547000000000000000000000000000000000002C
:105480009E0708010801080190009000B00060002C
:10549000600060002000200024001C0000000000CC
:1054A00000000000000000000000000000000000FC
:1054B000FC018401C4004400600020003000180298
:1054C00008020C03FC0100000000000000000000C6
:1054D0000003800080008000800080008000800049
:1054E000800040002000400080008000800080009C
:1054F0008000800080008000000300004000400029
:10550000400040004000400040004000400040009B
:10551000400040004000400040004000400040008B
:1055200040004000400040004000400000000000FB
:105530000C001000100010001000100010001000EF
:10554000100020004000200010001000100010008B
:1055500010001000100010000C00000000001C00E3
:105560002204C204800300000000000000000000CC
:10557000000000000000000000000000000000002B
:10558000000000000000000000000000000000001B
:10559000000000000000000000000000000000000B
:1055A00000000000000000000000000000000000FB
:1055B00000000000000000000000000000000000EB
:1055C00000000000000000000000000000000000DB
:1055D000000000000000C001C001C001C001C00106
:1055E000C001C00180008000800080008000800039
:1055F000800000000000000000008001C003C00324
:105600008001000000000000000000000000000019
:105610000000E01CE01CF01E700E380718030801A3
:1056200084000000000000000000000000000000F6
:10563000000000000000000000000000000000006A
:10564000000000000000000000000000000000005A
:10565000000000000000000020102010201020108A
:105660002010FE7FFE7F1008100810081008100898
:1056700010081008FE7FFE7F0804080408040804D0
:10568000080400000000000000000000000000000E
:105690000000000000010001C0076019103118313E
:1056A0001839183938017001E001C0038007000F74
:1056B000001D003900311C311C310C310C11180D4A
:1056C000E0070001000100010000000000000000F0
:1056D00000000000000000001C1036186308630C76
:1056E00063046304630263026301361D9C378022F6
:1056F0008063406340632063206330631022183668
:10570000081C000000000000000000000000000075
:105710000000000000000000F00098018C018C01E6
:105720008C018C018C00CC007800183E1C083608D7
:10573000320863046304C304C303834306438E2611
:10574000781C0000000000000000000000000000C5
:1057500000001C003C003C003000300010000C0039
:105760000600000000000000000000000000000033
:105770000000000000000000000000000000000029
:105780000000000000000000000000000000000019
:1057900000000040002000100008000C000400067B
:1057A000000300030003800180018001800180016B
:1057B0008001800180010003000300030006000651
:1057C000000C000800100020004000000000000055
:1057D00000000200040008001000300020006000FB
:1057E000C000C000C00080018001800180018001F4
:1057F000800180018001C000C000C0006000600026
:10580000300010000800040002000000000000004A
:105810000000000000000000000000000001800304
:10582000800300011C713C79783DC0070001C0076E
:10583000783D3C791C7100018003800380010000E9
:105840000000000000000000000000000000000058
:105850000000000000000000000000000000000147
:10586000000100010001000100010001FC7F0001B6
:105870000001000100010001000100010000000022
:105880000000000000000000000000000000000018
:105890000000000000000000000000000000000008
:1058A00000000000000000000000000000000000F8
:1058B0000000000000000000000000001C003C0090
:1058C0003C003000300010000C000600000000001A
:1058D00000000000000000000000000000000000C8
:1058E000000000000000000000000000FE7F00003B
:1058F00000000000000000000000000000000000A8
:105900000000000000000000000000000000000097
:105910000000000000000000000000000000000087
:105920000000000000000000000000000000000077
:105930000000000000000000000018003C003C00D7
:10594000180000000000000000000000000000003F
:105950000000004000600020003000100018000827
:10596000000C00040006000200030001800180001A
:10597000C000400060002000300010001800080047
:105980000C000400060002000000000000000000FF
:105990000000000000000000C007600C3018183044
:1059A000183018200C600C600C600C600C600C60EF
:1059B0000C600C600C601820183018303018600C27
:1059C000C007000000000000000000000000000010
:1059D000000000000000000000018001F8018001CB
:1059E00080018001800180018001800180018001AF
:1059F0008001800180018001800180018001C0035D
:105A0000F81F00000000000000000000000000007F
:105A10000000000000000000E007101C081804301F
:105A200004300C300C300030001800080004000274
:105A30000001800040002020102008200430FC1FBE
:105A4000FC1F00000000000000000000000000003B
:105A50000000000000000000E003180E0C0C0C1801
:105A60000C180C180018000C0006C003000E0018DB
:105A70000010003000300C300C300C100C18180CDA
:105A8000E003000000000000000000000000000033
:105A90000000000000000000000C000E000E000FCF
:105AA000800E800E400E600E200E100E100E080E9E
:105AB000040E040EFE7F000E000E000E000E000EFF
:105AC000000EC07F00000000000000000000000089
:105AD0000000000000000000F03FF03F1000100048
