:020000040800F2
:1000000028080020CD010008790A00080907000827
:10001000750A00088D030008DB11000800000000CD
:10002000000000000000000000000000330E000887
:10003000D705000800000000ED0A0008450F000881
:10004000E7010008E7010008E7010008E7010008F0
:10005000E7010008E7010008E7010008E7010008E0
:10006000E7010008E7010008E7010008E7010008D0
:10007000E7010008E701000891030008E701000814
:10008000E7010008E7010008E7010008E7010008B0
:10009000E7010008E7010008E7010008E7010008A0
:1000A000E7010008E7010008E7010008E701000890
:1000B000E7010008E7010008E7010008E701000880
:1000C000E7010008E7010008E7010008E701000870
:1000D000E7010008A90F0008E7010008E701000890
:1000E000E7010008E7010008E7010008E701000850
:1000F000E7010008E7010008E7010008E701000840
:10010000E7010008E7010008E7010008E70100082F
:10011000E7010008E7010008E7010008E70100081F
:10012000E7010008E7010008E7010008E70100080F
:1001300000F002F800F03AF80AA090E8000C8244BF
:100140008344AAF10107DA4501D100F02FF8AFF29C
:10015000090EBAE80F0013F0010F18BFFB1A43F0A5
:10016000010318471C1600003C160000103A24BF7B
:1001700078C878C1FAD8520724BF30C830C144BF0C
:1001800004680C607047000000230024002500264E
:10019000103A28BF78C1FBD8520728BF30C148BFEA
:1001A0000B6070471FB51FBD10B510BD00F0AAF859
:1001B0001146FFF7F7FF01F0D3F900F0C8F803B4D8
:1001C000FFF7F2FF03BC01F00AF80000094880477E
:1001D00009480047FEE7FEE7FEE7FEE7FEE7FEE729
:1001E000FEE7FEE7FEE7FEE704480549054A064B41
:1001F00070470000490F0008310100082802002064
:100200002808002028040020280400207047032A22
:1002100040F2308010F0030C00F0158011F8013B23
:10022000BCF1020F624498BF11F801CB00F8013B0A
:1002300038BF11F8013BA2F1040298BF00F801CBCE
:1002400038BF00F8013B11F0030300F02980083AA1
:10025000C0F0088051F8043B083A51F804CBA0E8FC
:100260000810F5E7121D5CBF51F8043B40F8043B51
:10027000AFF30080D20724BF11F8013B11F801CB86
:1002800048BF11F8012B24BF00F8013B00F801CB57
:1002900048BF00F8012B70477047704770477047A0
:1002A00010B5203AC0F00B80B1E81850203AA0E811
:1002B0001850B1E81850A0E81850BFF4F5AF5FEA45
:1002C000027C24BFB1E81850A0E8185044BF18C9F8
:1002D00018C0BDE810405FEA827C24BF51F8043B9F
:1002E00040F8043B08BF7047D20728BF31F8023BF3
:1002F00048BF11F8012B28BF20F8023B48BF00F887
:10030000012B7047754600F02BF8AE460500694694
:10031000534620F00700854618B020B5FFF764FF6C
:10032000BDE820404FF000064FF000074FF00008F6
:100330004FF0000B21F00701AC46ACE8C009ACE877
:10034000C009ACE8C009ACE8C0098D46704710B5DB
:100350000446AFF300802046BDE81040FFF72FBFF2
:1003600000487047C80100202DE9F04105460E46BF
:100370001746002400BF05E0285D00F0E9FC305579
:10038000601C84B2BC42F7DBBDE8F08100BFFEE731
:1003900010B54FF4005000F0E1F860B14FF4005098
:1003A00000F01CF80021044800F026F80020034962
:1003B000087001F045F910BD44000240040000201F
:1003C00000F0805111B10349086001E00249486022
:1003D00070470000040402400000024000F0805119
:1003E00011B10349086001E002494860704700000C
:1003F000040402400000024021B1026842F0010200
:10040000026004E002684FF6FE731A400260704713
:1004100001684FF6FE7211400160002101604160E9
:100420008160C1604B49884208D14A49083949680E
:1004300041F00F01474A083A51608AE045491431BA
:10044000884208D143490839496841F0F001414ADE
:10045000083A51607DE03F492831884208D13D4942
:100460000839496841F470613A4A083A516070E0CD
:1004700038493C31884208D136490839496841F445
:100480007041344A083A516063E032495031884241
:1004900008D130490839496841F470212D4A083A99
:1004A000516056E02B496431884208D12949083906
:1004B000496841F47001274A083A516049E02549EA
:1004C0007831884208D123490839496841F0706180
:1004D000204A083A51603CE01F49884206D1011F7A
:1004E000096841F00F01021F116032E01A4914310E
:1004F000884208D11849091F096841F0F001164ADD
:10050000121F116025E014492831884208D1124990
:10051000091F096841F470610F4A121F116018E049
:100520000D493C31884208D10B49091F096841F443
:100530007041094A121F11600BE00749503188428F
:1005400007D10549091F096841F47021024A121FA9
:100550001160704708000240080402400146002074
:10056000002201F0805313B1054B1A6801E0054BDE
:100570001A6802EA01030BB1012000E00020704775
:1005800000040240000002401AB103680B430360FC
:1005900002E003688B430360704710B500220268D5
:1005A00047F6F0739A430C6A8B6823430C69234324
:1005B0004C6923438C692343CC6923434C6A23430E
:1005C0008C6A23431A430260CB6843600B688360E4
:1005D0004B68C36010BD70472DE9F041024600250D
:1005E0000026002000230024002791F803C00CF00F
:1005F0000F0591F803C00CF0100CBCF1000F03D0F4
:1006000091F802C04CEA050591F800C0BCF1000F5A
:1006100031D0146800202BE04FF0010C0CFA00F3ED
:10062000B1F800C00CEA03069E4220D183004FF0CF
:100630000F0C0CFA03F7BC4305FA03FC4CEA040464
:1006400091F803C0BCF1280F06D14FF0010C0CFA51
:1006500000FCC2F814C00AE091F803C0BCF1480FD6
:1006600005D14FF0010C0CFA00FCC2F810C0401C80
:100670000828D1D31460B1F800C0BCF1FF0F34DDFD
:10068000546800202EE000F1080C4FF0010808FA31
:100690000CF3B1F800C00CEA03069E4221D183009E
:1006A0004FF00F0C0CFA03F7BC4305FA03FC4CEABD
:1006B000040491F803C0BCF1280F05D100F1080C27
:1006C00008FA0CF8C2F8148091F803C0BCF1480F86
:1006D00007D100F1080C4FF0010808FA0CF8C2F835
:1006E0001080401C0828CED35460BDE8F08102463B
:1006F000002093680B400BB1012000E00020704700
:10070000416170470161704700BFFEE72DE9F0418C
:1007100004460D4616461F462A2000F06FF9A11C1C
:1007200088B200F05BF9B11C88B200F057F92B20B9
:1007300000F064F9691C88B200F050F9791C88B2A5
:1007400000F04CF92C2000F059F9BDE8F0812DE9BA
:10075000F04706460F4614461D46DDF820A0681EE9
:1007600083B2601E82B239463046FFF7CFFFB846EB
:100770000EE0B14606E0504600F030F909F1010004
:100780001FFA80F9A145F6DB08F101001FFA80F895
:10079000A845EEDBBDE8F08708B50121102000F088
:1007A000C7F94FF40060ADF8000048208DF8030051
:1007B00003208DF8020069460848FFF70DFF43F259
:1007C000F040ADF8000010208DF8030003208DF8F4
:1007D000020069460148FFF7FFFE08BD0010014016
:1007E00010B5FFF7D9FF80217B48FFF789FF642010
:1007F00000F06AFE80217848FFF784FF642000F053
:1008000063FE4FF400517448FFF77CFF642000F052
:100810005BFE112000F0F2F8782000F055FEB120C8
:1008200000F0ECF8052000F0E2F83C2000F0DFF8E2
:100830003C2000F0DCF8B22000F0E0F8052000F0E9
:10084000D6F83C2000F0D3F83C2000F0D0F8B320DC
:1008500000F0D4F8052000F0CAF83C2000F0C7F8FA
:100860003C2000F0C4F8052000F0C1F83C2000F066
:10087000BEF83C2000F0BBF8B42000F0BFF8032025
:1008800000F0B5F8C02000F0B9F8282000F0AFF86B
:10089000082000F0ACF8042000F0A9F8C12000F016
:1008A000ADF8C02000F0A3F8C22000F0A7F80D209A
:1008B00000F09DF8002000F09AF8C32000F09EF8A8
:1008C0008D2000F094F82A2000F091F8C42000F068
:1008D00095F88D2000F08BF8EE2000F088F8C52008
:1008E00000F08CF81A2000F082F8362000F086F82C
:1008F000C02000F07CF8E02000F080F8042000F038
:1009000076F8222000F073F8072000F070F80A2033
:1009100000F06DF82E2000F06AF8302000F067F843
:10092000252000F064F82A2000F061F8282000F06B
:100930005EF8262000F05BF82E2000F058F83A20F0
:1009400000F055F8002000F052F8012000F04FF8B8
:10095000032000F04CF8132000F049F8E12000F0EB
:100960004DF8042000F043F8162000F040F806206F
:1009700000F03DF80D2000F03AF82D2000F037F897
:10098000262000F034F8232000F031F8272000F072
:100990002EF8272000F02BF8252000F028F82D2035
:1009A00000F025F83B2000F022F8002000F01FF8AE
:1009B000012000F01CF8042000F019F8132000F0CA
:1009C00016F83A2000F01AF8052000F010F8292057
:1009D00000F014F810BD00000010014010B50446EE
:1009E000201200F01BF8E0B200F018F810BD10B5AE
:1009F0000446204600F012F810BD000010B5044671
:100A000040210548FFF77CFE204600F007F8402112
:100A10000148FFF777FE10BD0010014070B5044695
:100A20004FF480511248FFF76BFE002517E020219C
:100A30000F48FFF765FE04F0800020B110210C483C
:100A4000FFF760FE03E010210948FFF759FE20215F
:100A50000748FFF757FE6006040E681CC5B2082D54
:100A6000E5DB4FF480510248FFF74CFE70BD0000FB
:100A70000010014000BFFEE77047000070B5002184
:100A800000230F22C47804B3154C246804F4E064F6
:100A9000C4F5E064210AC1F10403CA40447804FAB1
:100AA00003F184781440214309010E4C0678A155C6
:100AB000047804F01F050124AC4005786D11AD00E9
:100AC00005F1E025C5F8004109E0047804F01F05B0
:100AD0000124AC40044D0678761145F8264070BDDF
:100AE0000CED00E000E400E080E100E07047000071
:100AF00029B1064A52690243044B5A6104E0034A91
:100B000052698243014B5A61704700000010024055
:100B100029B1064AD2690243044BDA6104E0034A70
:100B2000D2698243014BDA61704700000010024035
:100B300029B1064A92690243044B9A6104E0034AD0
:100B400092698243014B9A61704700000010024095
:100B500030B500210022002400232D4D6D6805F0E2
:100B60000C0121B1042905D0082923D105E0294D24
:100B7000056022E0274D05601FE0254D6D6805F4F6
:100B80007012234D6D6805F48034022505EB924206
:100B90001CB9214D554305600BE01D4D6D6805F4F2
:100BA00000351DB11C4D5543056002E0194D5543FC
:100BB000056002E0174D056000BF00BF144D6D6871
:100BC00005F0F0010909154D6B5C0568DD404560D5
:100BD0000F4D6D6805F4E061090A104D6B5C4568C6
:100BE000DD4085600A4D6D6805F46051C90A0B4D02
:100BF0006B5C4568DD40C560054D6D6805F440419E
:100C0000890B074D6B5CC568B5FBF3F5056130BD1D
:100C10000010024000127A0000093D00110000207F
:100C20002100002038B500203E490860022000F075
:100C300071FC002000F08CF88DF80000002000F01E
:100C400087F88DF80100002000F082F88DF802008E
:100C5000002000F07DF88DF80300022000F05AFC1F
:100C600001203149C1F8A8019DF800002F49087002
:100C70000846007800F01F002D4908709DF801001B
:100C80002C4908709DF802002B4908709DF803005C
:100C90002A4908702748007800042749097840EA63
:100CA00001202649097840EA0105FF242048007800
:100CB000092808DB1E4800780F2804DC1C4800784F
:100CC0000938C4B20BE01A480078112807DB18482D
:100CD0000078152803DC164800780A38C4B20C2CBA
:100CE0001DDA174840F824501648005DB8B9C5F31E
:100CF000074104EB4400144A1154C5F3072104EBE7
:100D00004400401C115404EB4400801C1554012085
:100D10000C4908550D480078401C0C49087001200A
:100D200038BD0000A8812142008021420C00002033
:100D30000D0000200E0000200F00002010000020F9
:100D400048000020820000208E00002000000020CB
:100D500070B50546002405E0601C84B2C82C01DD96
:100D6000002070BD02210E4800F028F80028F3D0C2
:100D700029460B4800F02EF8002405E0601C84B2E0
:100D8000C82C01DD0020ECE70121054800F016F831
:100D90000028F3D0024800F01AF8C0B2E1E70000E2
:100DA0000038004021B1028842F04002028004E095
:100DB00002884FF6BF731A40028070470246002037
:100DC00013890B400BB1012000E000207047014661
:100DD000888970478181704710B50022028802F42B
:100DE00041520B884C8823438C882343CC8823436F
:100DF0000C8923434C8923438C892343CC89234387
:100E00001A430280838B4FF2FF74234083830B8A43
:100E1000038210BD4FF6FF62914204D0028842F473
:100E20008072028004E002884FF6FF631A4002805D
:100E30007047704710B500F001F810BD0CB50020E8
:100E4000019000903348006840F4803031490860D8
:100E500000BF3048006800F4003000900198401C4A
:100E60000190009818B90198B0F5A06FF1D1294808
:100E7000006800F4003010B10120009001E0002073
:100E800000900098012843D12348006840F01000EA
:100E9000214908600846006820F003000860084601
:100EA000006840F0020008601A484068194948602C
:100EB0000846406848600846406840F480604860E2
:100EC0000846406820F47C1048600846406840F4BA
:100ED000E81048600846006840F08070086000BF75
:100EE0000C48006800F000700028F9D009484068FC
:100EF00020F00300074948600846406840F00200BF
:100F0000486000BF0348406800F00C000828F9D191
:100F10000CBD00000010024000200240042808D14F
:100F20004FF0E021096941F004014FF0E022116126
:100F300007E04FF0E021096921F004014FF0E022C1
:100F4000116170477047000010B51348006840F009
:100F500001001149086008464068104908400E49E0
:100F60004860084600680E4908400B49086008467A
:100F7000006820F4802008600846406820F4FE00E5
:100F800048604FF41F008860FFF754FF4FF0006087
:100F90000449086010BD0000001002400000FFF886
:100FA000FFFFF6FE08ED00E010B540F225511D48A8
:100FB00000F053F810B31B4800F00AF9C4B21A4805
:100FC000008800F40040C8B91748008800F4804049
:100FD00060B10A2C03D000201349088020E0124899
:100FE000008840F400401049088019E00D2C06D11B
:100FF0000D48008840F480400B49088010E00A4802
:101000000088C0F30D0009490C5407480088401CB3
:101010000549088008460088C72801DD00200880AF
:1010200010BD00000038014030000020FE0000200C
:1010300021B1828942F40052828104E082894DF616
:10104000FF731A40828170471AB1838A0B438382EF
:1010500002E0838A8B438382704770B50246002486
:1010600000230025002040F66A16B14200D100BFDF
:10107000C1F3421501F01F03012606FA03F3012D07
:1010800002D19689334006E0022D02D1168A334000
:1010900001E0968A33400C12012606FA04F4168801
:1010A000344013B10CB1012000E0002070BDF0B558
:1010B0000346002400260025002040F66A17B942A6
:1010C00000D100BF1846C1F3421401F01F060127EA
:1010D00007FA06F5012C01D10C3004E0022C01D1F5
:1010E000103000E014301AB107682F43076002E0A7
:1010F0000768AF430760F0BD2DE9F04786B00546AD
:101100000E460024A24600BFA1460027B08900B1C8
:1011100000BF2F462C8A4CF6FF700440F088044331
:101120002C82AC894EF6F3100440B0883189084314
:10113000718908430443AC81AC8A4FF6FF400440F8
:10114000B0890443AC8201A8FFF702FD1F48874223
:1011500002D1DDF810A001E0DDF80CA0A88900F4B0
:10116000004040B10AEBCA0000EB0A1031684900A8
:10117000B0FBF1F807E00AEBCA0000EB0A10316897
:101180008900B0FBF1F86420B8FBF0F004012009FD
:10119000642101FB1089A88900F4004040B132208D
:1011A00000EBC900B0FBF1F000F00700044308E0D9
:1011B000322000EB09106421B0FBF1F000F00F00C9
:1011C00004432C8106B0BDE8F087000000380140E0
:1011D00001468888C0F30800704700BFFEE700BFE3
:1011E000704700000021064A1170002004E0002131
:1011F000044A1154411CC8B20C28F8DB70470000A7
:10120000000000208200002008B501210820FFF71F
:101210008FFC4FF47860ADF8000010208DF80300CB
:1012200003208DF8020069460A48FFF7D5F901202E
:101230000949086000200949C1F8A40101200649B4
:1012400008390860091F086000200349091D08606B
:1012500008BD0000000C0140A8812142008021420D
:1012600010B5002005490860012000F02DF901208B
:101270000349C1F8A00100F027F910BDA081214267
:101280000080214210B5FFF7BFFF00F003F8FFF721
:10129000E7FF10BD00B587B001210820FFF748FC2B
:1012A00001218803FFF734FC4FF42040ADF818000B
:1012B00018208DF81B0003208DF81A0006A922487B
:1012C000FFF78AF94FF48040ADF8180004208DF83C
:1012D0001B0006A91C48FFF77FF94FF460411A482C
:1012E000FFF710FA4FF48050ADF8180048208DF841
:1012F0001B0006A91448FFF76FF90020ADF80400A1
:101300004FF48270ADF806000020ADF80800ADF88B
:101310000A00ADF80C004FF40070ADF80E0010207C
:10132000ADF810000020ADF8120001A90748FFF742
:1013300053FD4FF480710548FFF76CFD0121034810
:10134000FFF730FD07B000BD000C01400038004041
:1013500010B54FF480510848FFF7C9F900B110BD2E
:10136000FFF760FC054800780C2803DB00F0D0F99B
:10137000FFF738FF00BFF2E7000C0140000000203B
:1013800000B58DB001210846FFF7B2FB1F48FFF7FB
:101390003FF81F4802901F48039010200490262019
:1013A000059000200690802007900020089009906A
:1013B0000A904FF400500B9000200C9002A91348A3
:1013C000FFF7EBF8012202211048FFF7DDF80122B8
:1013D00080210F48001FFFF737FE0E208DF8040014
:1013E00001208DF805008DF806008DF8070001A892
:1013F000FFF744FB0020084908704870074908704F
:1014000007490870074908600DB000BD440002405C
:1014100004380140B2000020010000200400002038
:10142000030000200800002000B587B010A207CA02
:1014300004AB07C300200190029003900F4908609D
:10144000142000F067F80A2201A904A8FEF78CFF17
:10145000142000F05FF801200949C1F8A8010A2012
:1014600000F032F801200549091D086007B000BDF1
:101470007006000000FE3E00FF000000A88121422F
:101480000080214210B56FF00400FFF747FD0A48C5
:1014900000680A49B0FBF1F0094908700846007875
:1014A00000EB4001C1EBC0104FF6FF7101EAC00034
:1014B0000449088010BD00003400002000127A00AA
:1014C00026000020280000200146114A12884A43C5
:1014D0004FF0E0235A6100229A611A46126942F0E5
:1014E00001021A6100BF4FF0E022106900F0010212
:1014F0001AB100F48032002AF5D04FF0E0221269D0
:1015000022F001024FF0E0231A6100229A61704735
:10151000280000200146114A12784A434FF0E02388
:101520005A6100229A611A46126942F001021A6158
:1015300000BF4FF0E022106900F001021AB100F480
:101540008032002AF5D04FF0E022126922F0010229
:101550004FF0E0231A6100229A61704726000020B4
:1015600008B5FFF78FFF0F4800F082F8FFF738F952
:101570004FF6E070A0238022002100900846FFF77C
:10158000E6F8FFF77FFE6420FFF79EFFFFF74CFFB2
:101590006420FFF799FFFFF7F3FE01E0FFF7D8FEA5
:1015A000FCE7000000CA080000210DE008480078B0
:1015B000814202D10748007820B90748405C08B949
:1015C00008467047481CC1B20229EFDBFF20F8E74C
:1015D00003000020040000200100002010B5044694
:1015E0001248007800B110BD1148047001200F4965
:1015F000087000210F48FEF7FFFE4FF47040FEF721
:10160000DFFE04EB440000EB04100B4901EB40004B
:101610000849443908652620886400200749085590
:1016200001210448FEF7E8FE00BFDCE704000020CB
:101630000300002044000240B2000020010000200E
:1016400010B50948007800B110BD002408E0074833
:10165000005D18B12046FFF7C1FFF5E7601CC4B27A
:10166000022CF4DB00BFEFE70400002001000020A3
:1016700010B586B00446012144F20400FFF758FA81
:101680004FF40070ADF8140003208DF816001820F8
:101690008DF8170005A91C48FEF79EFF4FF48060E7
:1016A000ADF8140004208DF8170005A91648FEF7C0
:1016B00093FF25208DF8000001208DF801008DF8A2
:1016C00002008DF803006846FFF7D8F90194002066
:1016D000ADF80800ADF80A00ADF80C00ADF8100048
:1016E0000C20ADF80E0001A90848FFF705FD012206
:1016F00040F225510548FFF7DAFC01210348FFF7C6
:1017000097FC06B010BD0000000801400038014001
:1017100010B5FFF749FF0446FF2C06D114480068B6
:10172000401C13490860002010BDAA2004EB4401AE
:1017300001EB04110F4A02F81100552004EB44019B
:1017400001EB041102EB4101487004EB440101EB91
:10175000041102EB4101881C24220749FEF757FDC2
:10176000012006490855FFF76BFF0120DCE7000068
:1017700008000020B20000208E00002001000020A0
:10178000A017000800000020480000006C010008BD
:10179000E817000848000020E00700008801000862
:1017A0000000000000000000000000000000000039
:1017B0000000000000010203040102030406070800
:1017C00009020406080000000000000000000000FC
:1017D0000000000000A24A04000000000000000019
:0817E0000102030406070809D9
:0400000508000131BD
:00000001FF
