:020000040800F2
:10000000E8070020D5010008A5090008350600080A
:10001000A1090008FF040008AF110008000000005B
:10002000000000000000000000000000170E0008A3
:100030000305000800000000190A0008290F000845
:10004000EF010008EF010008EF010008EF010008D0
:10005000EF010008EF010008EF010008EF010008C0
:10006000EF010008EF010008EF010008EF010008B0
:10007000EF010008EF010008EF010008EF010008A0
:10008000EF010008EF010008EF010008EF01000890
:10009000EF010008EF010008EF010008EF01000880
:1000A000EF010008EF010008EF010008EF01000870
:1000B000EF010008EF010008EF010008EF01000860
:1000C000EF010008EF010008EF010008EF01000850
:1000D000EF0100088D0F0008EF010008EF01000894
:1000E000EF010008EF010008EF010008EF01000830
:1000F000EF010008EF010008EF010008EF01000820
:10010000EF010008EF010008EF010008EF0100080F
:10011000EF010008EF010008EF010008EF010008FF
:10012000EF010008EF010008EF010008EF010008EF
:1001300000F002F800F03FF80AA090E8000C8244BA
:100140008344AAF10107DA4501D100F034F8AFF297
:10015000090EBAE80F0013F0010F18BFFB1A43F0A5
:10016000010318472C1500004C150000103A24BF5D
:1001700078C878C1FAD8520724BF30C830C144BF0C
:1001800004680C607047000000230024002500264E
:10019000103A28BF78C1FBD8520728BF30C148BFEA
:1001A0000B607047642900F04380002070471FB542
:1001B0001FBD10B510BD00F05FF91146FFF7F7FF46
:1001C00001F0CCF900F07DF903B4FFF7F2FF03BCB6
:1001D00000F0EFFF0948804709480047FEE7FEE7C7
:1001E000FEE7FEE7FEE7FEE7FEE7FEE7FEE7FEE7E7
:1001F00004480549054A064B704700002D0F0008CA
:1002000031010008E8010020E8070020E803002091
:10021000E8030020704700000FB4044910B503AA9A
:10022000029800F0FBF810BC5DF814FB28000020D9
:100230002DE9F0410646002410687529314616A5BF
:1002400010D0AFF30080002802DA404213A507E087
:1002500031688A0701D512A502E0490704D511A526
:10026000012401E0AFF3008000210A2206F12407F7
:1002700009E0B0FBF2FCB0FBF2F302FB1C003030F3
:1002800078541846491C0028F3D123462A463046A4
:10029000BDE8F04100F068B8000000002D0000004B
:1002A0002B000000200000002DE9F0410F4605461C
:1002B000002028622846E968884770B3252805D0C1
:1002C000D5E901219047286A401CF2E7E9682846F1
:1002D000002688476C2804460AD0682C08D04C2C8D
:1002E00035D06A2C31D0742C31D07A2C2FD016E036
:1002F000E968064628468847B042044608D16C2E75
:1003000023D04FF480662846E9688847044606E013
:100310006C2E03D04FF4807601E01EE04026E4B15D
:10032000A4F14100192802D8203446F400663A4668
:10033000214628462E60FFF735FF60B1012808D01E
:10034000FF1D27F007070837B4E78026DBE7002604
:10035000D9E73F1DAEE72046B2E7286ABDE8F08145
:1003600070477047704770472DE9F0470D46994632
:100370009246044600F124080168880604D5E06925
:1003800021F01001216000E00120A84201DD471B9F
:1003900000E00027A1697A1902EB0900081AA061A0
:1003A0002078C00602D42046AFF30080002608E083
:1003B000D4E901211AF806009047206A401C761CF7
:1003C00020624E45F4DB2078C0060AD52046AFF304
:1003D000008006E0D4E9012130209047206A401CCB
:1003E0002062381EA7F10107F4DC07E0D4E90121FF
:1003F00018F805009047206A401C2062281EA5F1CD
:100400000105F3DC2046AFF300802078000602D51A
:100410000220BDE8F0870120FBE70000074B70B524
:100420000D467B4400F011F80446284600F020F801
:1004300010B14FF0FF3070BD204670BD1B110000A1
:1004400001694A1C02610878704700B58FB0CDE998
:1004500001310021059105497944CDE90310114688
:100460006846FFF721FF0FB000BD0000E5FFFFFF6A
:10047000007B00F080007047754600F02BF8AE4618
:1004800005006946534620F00700854618B020B5A0
:10049000FFF7AEFEBDE820404FF000064FF000072A
:1004A0004FF000084FF0000B21F00701AC46ACE81C
:1004B000C009ACE8C009ACE8C009ACE8C0098D4689
:1004C000704710B50446AFF300802046BDE81040E9
:1004D000FFF77ABE00487047840100202DE9F04103
:1004E00005460E461746002400BF04E0285D00F0D4
:1004F00021FC3055641CBC42F8D3BDE8F08100BF3C
:10050000FEE770472DE9F041024600250026002055
:1005100000230024002791F803C00CF00F0591F888
:1005200003C00CF0100CBCF1000F03D091F802C016
:100530004CEA050591F800C0BCF1000F31D01468F9
:1005400000202BE04FF0010C0CFA00F3B1F800C0D2
:100550000CEA03069E4220D183004FF00F0C0CFAE8
:1005600003F7BC4305FA03FC4CEA040491F803C00A
:10057000BCF1280F06D14FF0010C0CFA00FCC2F8B8
:1005800014C00AE091F803C0BCF1480F05D14FF048
:10059000010C0CFA00FCC2F810C0401C0828D1D392
:1005A0001460B1F800C0BCF1FF0F34DD54680020C6
:1005B0002EE000F1080C4FF0010808FA0CF3B1F836
:1005C00000C00CEA03069E4221D183004FF00F0CBD
:1005D0000CFA03F7BC4305FA03FC4CEA040491F857
:1005E00003C0BCF1280F05D100F1080C08FA0CF883
:1005F000C2F8148091F803C0BCF1480F07D100F194
:10060000080C4FF0010808FA0CF8C2F81080401CE2
:100610000828CED35460BDE8F081024600209368DC
:100620000B400BB1012000E0002070474161704792
:100630000161704700BFFEE72DE9F04104460D4619
:1006400016461F462A2000F06FF9A11C88B200F060
:100650005BF9B11C88B200F057F92B2000F064F967
:10066000691C88B200F050F9791C88B200F04CF98E
:100670002C2000F059F9BDE8F0812DE9F04706463D
:100680000F4614461D46DDF820A0681E83B2601E8A
:1006900082B239463046FFF7CFFFB8460EE0B1468A
:1006A00006E0504600F030F909F101001FFA80F928
:1006B000A145F6DB08F101001FFA80F8A845EEDB42
:1006C000BDE8F08708B50121102000F0B7F94FF41C
:1006D0000060ADF8000048208DF8030003208DF87D
:1006E000020069460848FFF70DFF43F2F040ADF8FD
:1006F000000010208DF8030003208DF802006946E9
:100700000148FFF7FFFE08BD0010014010B5FFF7DC
:10071000D9FF80217B48FFF789FF642000F0C4FEE9
:1007200080217848FFF784FF642000F0BDFE4FF47D
:1007300000517448FFF77CFF642000F0B5FE1120E3
:1007400000F0F2F8782000F0AFFEB12000F0ECF8F5
:10075000052000F0E2F83C2000F0DFF83C2000F03B
:10076000DCF8B22000F0E0F8052000F0D6F83C20DC
:1007700000F0D3F83C2000F0D0F8B32000F0D4F81B
:10078000052000F0CAF83C2000F0C7F83C2000F03B
:10079000C4F8052000F0C1F83C2000F0BEF83C2071
:1007A00000F0BBF8B42000F0BFF8032000F0B5F86B
:1007B000C02000F0B9F8282000F0AFF8082000F0C1
:1007C000ACF8042000F0A9F8C12000F0ADF8C0207A
:1007D00000F0A3F8C22000F0A7F80D2000F09DF86B
:1007E000002000F09AF8C32000F09EF88D2000F061
:1007F00094F82A2000F091F8C42000F095F88D209C
:1008000000F08BF8EE2000F088F8C52000F08CF89E
:100810001A2000F082F8362000F086F8C02000F0A0
:100820007CF8E02000F080F8042000F076F8222028
:1008300000F073F8072000F070F80A2000F06DF85F
:100840002E2000F06AF8302000F067F8252000F034
:1008500064F82A2000F061F8282000F05EF82620D5
:1008600000F05BF82E2000F058F83A2000F055F820
:10087000002000F052F8012000F04FF8032000F0B3
:100880004CF8132000F049F8E12000F04DF8042066
:1008900000F043F8162000F040F8062000F03DF884
:1008A0000D2000F03AF82D2000F037F8262000F057
:1008B00034F8232000F031F8272000F02EF827200C
:1008C00000F02BF8252000F028F82D2000F025F866
:1008D0003B2000F022F8002000F01FF8012000F07B
:1008E0001CF8042000F019F8132000F016F83A2044
:1008F00000F01AF8052000F010F8292000F014F894
:1009000010BD00000010014010B50446201200F098
:100910001BF8E0B200F018F810BD10B504462046F0
:1009200000F012F810BD000010B504464021054843
:10093000FFF77CFE204600F007F840210148FFF752
:1009400077FE10BD0010014070B504464FF4805191
:100950001248FFF76BFE002517E020210F48FFF734
:1009600065FE04F0800020B110210C48FFF760FE06
:1009700003E010210948FFF759FE20210748FFF73F
:1009800057FE6006040E681CC5B2082DE5DB4FF467
:1009900080510248FFF74CFE70BD0000001001407E
:1009A00000BFFEE77047000070B5002100230F2252
:1009B000C47804B3154C246804F4E064C4F5E0641E
:1009C000210AC1F10403CA40447804FA03F184788F
:1009D0001440214309010E4C0678A155047804F017
:1009E0001F050124AC4005786D11AD0005F1E0252F
:1009F000C5F8004109E0047804F01F050124AC406B
:100A0000044D0678761145F8264070BD0CED00E0E7
:100A100000E400E080E100E07047000029B1064AF0
:100A2000D2690243044BDA6104E0034AD26982438B
:100A3000014BDA61704700000010024029B1064AFC
:100A400092690243044B9A6104E0034A926982432B
:100A5000014B9A61704700000010024030B5002140
:100A60000022002400232D4D6D6805F00C0121B1FA
:100A7000042905D0082923D105E0294D056022E08D
:100A8000274D05601FE0254D6D6805F47012234D5C
:100A90006D6805F48034022505EB92421CB9214DA6
:100AA000554305600BE01D4D6D6805F400351DB123
:100AB0001C4D5543056002E0194D5543056002E0A9
:100AC000174D056000BF00BF144D6D6805F0F001C3
:100AD0000909154D6B5C0568DD4045600F4D6D687B
:100AE00005F4E061090A104D6B5C4568DD408560E6
:100AF0000A4D6D6805F46051C90A0B4D6B5C456881
:100B0000DD40C560054D6D6805F44041890B074D1A
:100B10006B5CC568B5FBF3F5056130BD00100240A4
:100B200000127A0000093D000D0000201D00002089
:100B30001CB500200190009076490860022000F06A
:100B4000D9FC0422694601A8FFF7C8FC022000F086
:100B5000D1FC01207049C1F8A8019DF800006F493F
:100B600008700846007800F01F006D4908709DF875
:100B700001006C4908709DF802006B4908709DF8EF
:100B800003006A4908706648007808380E2814D2B5
:100B9000DFE800F00714212E3B4855626F7C8996F0
:100BA000A3B06048007800045F49097840EA01205A
:100BB0005E49097808435E490862A8E05948007810
:100BC00000045949097840EA012058490978084346
:100BD000574948629BE0534800780004524909781D
:100BE00040EA0120514909780843514988628EE062
:100BF0004C48007800044C49097840EA01204B49F0
:100C0000097808434A49C86281E0464800780004F0
:100C10004549097840EA0120444909780843444994
:100C2000086374E03F48007800043F49097840EACF
:100C300001203E49097808433D49486367E0394847
:100C4000007800043849097840EA012037490978DA
:100C50000843374988635AE0324800780004324933
:100C6000097840EA01203149097808433049C863CE
:100C70004DE02C48007800042B49097840EA012017
:100C80002A49097808432A49086440E02548007841
:100C900000042549097840EA0120244909780843DD
:100CA0002349486433E01F48007800041E4909784E
:100CB00040EA01201D49097808431D49886426E05F
:100CC0001848007800041849097840EA01201749BB
:100CD000097808431649C86419E0124800780004EE
:100CE0001149097840EA0120104909780843104960
:100CF00008650CE00B48007800040B49097840EACD
:100D000001200A49097808430949486500BF00BF26
:100D10001CBD0000A8812142008021420800002063
:100D2000090000200A0000200B0000200C00002019
:100D30004400002070B50546002405E0601CC4B2E4
:100D4000C82C01DD002070BD02210E4800F028F8FB
:100D50000028F3D029460B4800F02EF8002405E0C7
:100D6000601CC4B2C82C01DD0020ECE7012105485D
:100D700000F016F80028F3D0024800F01AF8C0B2CC
:100D8000E1E700000038004021B1028842F0400253
:100D9000028004E002884FF6BF731A400280704759
:100DA0000246002013890B400BB1012000E0002017
:100DB00070470146888970478181704710B50022CD
:100DC000028802F441520B884C8823438C882343C9
:100DD000CC8823430C8923434C8923438C892343A8
:100DE000CC8923431A430280838B4FF2FF74234044
:100DF00083830B8A038210BD4FF6FF62914204D0B9
:100E0000028842F48072028004E002884FF6FF6399
:100E10001A4002807047704710B500F001F810BD0D
:100E20000CB50020019000903348006840F48030F9
:100E30003149086000BF3048006800F4003000907D
:100E40000198401C0190009818B90198B0F5A06F66
:100E5000F1D12948006800F4003010B10120009061
:100E600001E0002000900098012843D12348006849
:100E700040F01000214908600846006820F0030097
:100E800008600846006840F0020008601A484068A0
:100E9000194948600846406848600846406840F480
:100EA000806048600846406820F47C10486008462E
:100EB000406840F4E81048600846006840F08070E0
:100EC000086000BF0C48006800F000700028F9D0EE
:100ED0000948406820F00300074948600846406818
:100EE00040F00200486000BF0348406800F00C007A
:100EF0000828F9D10CBD000000100240002002407B
:100F0000042808D14FF0E021096941F004014FF0B5
:100F1000E022116107E04FF0E021096921F00401AE
:100F20004FF0E022116170477047000010B5134880
:100F3000006840F001001149086008464068104907
:100F400008400E494860084600680E4908400B49B1
:100F500008600846006820F4802008600846406861
:100F600020F4FE0048604FF41F008860FFF754FF34
:100F70004FF000600449086010BD000000100240FE
:100F80000000FFF8FFFFF6FE08ED00E010B540F2AC
:100F900025511D4800F04AF810B31B4800F002F933
:100FA000C4B21A48008800F40040C8B91748008845
:100FB00000F4804060B10A2C03D00020134908805F
:100FC00020E01248008840F400401049088019E0F1
:100FD0000D2C06D10D48008840F480400B49088054
:100FE00010E00A480088C0F30D0009490C54074876
:100FF0000088401C0549088008460088C72801DD94
:101000000020088010BD0000003801402C000020A6
:10101000BC00002021B1828942F40052828104E0A8
:1010200082894DF6FF731A408281704770B502467F
:10103000002400230025002040F66A16B14200D1AA
:1010400000BFC1F3421501F01F03012606FA03F3A6
:10105000012D02D19689334006E0022D02D1168A75
:10106000334001E0968A33400C12012606FA04F45C
:101070001688344013B10CB1012000E0002070BD8F
:10108000F0B50346002400260025002040F66A172C
:10109000B94200D100BF1846C1F3421401F01F0647
:1010A000012707FA06F5012C01D10C3004E0022CCF
:1010B00001D1103000E014301AB107682F430760E7
:1010C00002E00768AF430760F0BD00002DE9F0477C
:1010D00086B005460E460024A24600BFA146002762
:1010E000B08900B100BF2F462C8A4CF6FF70044037
:1010F000F08804432C82AC894EF6F3100440B0888B
:1011000031890843718908430443AC81AC8A4FF6A6
:10111000FF400440B0890443AC8201A8FFF79EFC65
:101120001F48874202D1DDF810A001E0DDF80CA0D5
:10113000A88900F4004040B10AEBCA0000EB0A1095
:1011400031684900B0FBF1F807E00AEBCA0000EB98
:101150000A1031688900B0FBF1F86420B8FBF0F0A8
:1011600004012009642101FB1089A88900F40040D2
:1011700040B1322000EBC900B0FBF1F000F00700F5
:10118000044308E0322000EB09106421B0FBF1F0C9
:1011900000F00F0004432C8106B0BDE8F08700008A
:1011A0000038014001468888C0F30800704700BF3E
:1011B000FEE700BF7047000008B501210820FFF7D7
:1011C0003DFC4FF47860ADF8000010208DF803006E
:1011D00003208DF8020069460A48FFF793F90120C1
:1011E0000949086000200949C1F8A4010120064905
:1011F00008390860091F086000200349091D0860BC
:1012000008BD0000000C0140A8812142008021425D
:1012100010B5002005490860012000F045F90120C3
:101220000349C1F8A00100F03FF910BDA08121429F
:101230000080214210B5FFF7BFFF00F003F8FFF771
:10124000E7FF10BD00B587B001210820FFF7F6FBCE
:1012500001218803FFF7E2FB4FF42040ADF81800AE
:1012600018208DF81B0003208DF81A0006A92248CB
:10127000FFF748F94FF48040ADF8180004208DF8CE
:101280001B0006A91C48FFF73DF94FF460411A48BE
:10129000FFF7CEF94FF48050ADF8180048208DF8D4
:1012A0001B0006A91448FFF72DF90020ADF8040033
:1012B0004FF48270ADF806000020ADF80800ADF8DC
:1012C0000A00ADF80C004FF40070ADF80E000820D5
:1012D000ADF810000020ADF8120001A90748FFF793
:1012E0006DFD4FF480710548FFF786FD012103482D
:1012F000FFF74AFD07B000BD000C01400038004078
:101300007FB505460C4612A103C9CDE902018DF84F
:101310000D508DF80E400020009001900E4908609D
:10132000142000F0E7F80822694602A8FFF7D6F873
:10133000142000F0DFF801200849C1F8A8010A20B4
:1013400000F0B2F801200449091D08607FBD0000CB
:101350007002F00000000000A881214200802142BC
:101360002DE9F0438FB036A2D2E900109268CDE9A2
:101370000D020C91002003E000214DF82010401CCC
:101380000C28F9DB002444E00CA8055D4FF00008B0
:10139000C146082D04DA0120A84000F0FF0805E04E
:1013A000A5F108000121814001F0FF0949464046AE
:1013B000FFF7A6FF00F0F8F84FF0FF37234800785A
:1013C000092808DB214800780F2804DC1F48007832
:1013D000A0F109070DE01D480078112808DB1B4823
:1013E0000078152804DC19480078A0F10A0700E00D
:1013F0000EE017481549097850F82160304600F48E
:10140000000109B140F07F4000BF4DF8270000BF48
:10141000641C0C2CB8DB0FA00099FEF7FDFE012424
:1014200005E05DF824100CA0FEF7F6FE641C0C2C01
:10143000F7DB0BA0FEF7F0FE0FB0BDE8F083000075
:1014400001020304050607090A0B0C0D0900002020
:1014500044000020256C64002C256C640000000012
:101460000D0A000010B56FF00400FFF749FD0A48AF
:1014700000680A49B0FBF1F0094908700846007895
:1014800000EB4001C1EBC0104FF6FF7101EAC00054
:101490000449088010BD00003000002000127A00CE
:1014A00022000020240000200146114A12884A43ED
:1014B0004FF0E0235A6100229A611A46126942F005
:1014C00001021A6100BF4FF0E022106900F0010232
:1014D0001AB100F48032002AF5D04FF0E0221269F0
:1014E00022F001024FF0E0231A6100229A61704756
:1014F000240000200146114A12784A434FF0E023AD
:101500005A6100229A611A46126942F001021A6178
:1015100000BF4FF0E022106900F001021AB100F4A0
:101520008032002AF5D04FF0E022126922F0010249
:101530004FF0E0231A6100229A61704722000020D8
:1015400000BF054A128802F04002002AF9D0C2B258
:10155000014B1B1D1A8070470038014008B5FFF78A
:1015600081FF4FF4E13000F043F8FFF7CFF84FF67A
:10157000E070A0238022002100900846FFF77DF84C
:10158000FFF758FE6420FFF78FFF00210846FFF7A2
:10159000B7FE6420FFF788FF04E0FFF7E1FE642058
:1015A000FFF782FFF9E7000010B542F210740BE07C
:1015B0004FF480510948FFF730F810B9FFF7B8FA37
:1015C00006E00120FFF796FF201EA4F10104EFD1F1
:1015D00000BF14B902A0FEF71FFE10BD000C0140B1
:1015E000445244592074696D656F7574210D0A0069
:1015F00010B586B00446012144F20400FFF71EFA3C
:101600004FF40070ADF8140003208DF81600182078
:101610008DF8170005A91C48FEF774FF4FF4806091
:10162000ADF8140004208DF8170005A91648FEF740
:1016300069FF25208DF8000001208DF801008DF84C
:1016400002008DF803006846FFF7AEF90194002010
:10165000ADF80800ADF80A00ADF80C00ADF81000C8
:101660000C20ADF80E0001A90848FFF72FFD01225C
:1016700040F225510548FFF703FD01210348FFF71C
:10168000C9FC06B010BD0000000801400038014050
:10169000B016000800000020440000006C010008A3
:1016A000F416000844000020A40700008801000888
:1016B000000000000000000000000000000000002A
:1016C00000010203040102030406070809020406DC
:1016D0000800000000000000000000000000000002
:1016E00000A24A0400000000000000000102030400
:0416F00006070809D8
:0400000508000131BD
:00000001FF
